:020000041000EA
:1000000000B5324B212058609868022188439860DF
:10001000D860186158612E4B002199600221596106
:100020000121F02299502B49196001219960352056
:1000300000F044F80222904214D00621196600F024
:1000400034F8196E01211966002018661A6600F04E
:100050002CF8196E196E196E052000F02FF8012189
:100060000842F9D1002199601B49196000215960AB
:100070001A491B48016001219960EB211966A021F2
:10008000196600F012F800219960164914480160C1
:100090000121996001BC002800D000471248134993
:1000A000086003C880F30888084703B5996A0420EC
:1000B0000142FBD001200142F8D103BD02B5186610
:1000C0001866FFF7F2FF186E186E02BD00000240BE
:1000D000000000180000070000035F00212200005C
:1000E000F4000018222000A00001001008ED00E03C
:1000F00000000000000000000000000074B24E7A12
:1001000000200420F7010010C3010010C5010010F9
:10011000C1010010C1010010C1010010C101001097
:10012000C1010010C1010010C1010010C701001081
:10013000C1010010C1010010C9010010CB01001065
:10014000CD010010CD010010CD010010CD01001037
:10015000CD010010CD010010CD010010CD01001027
:10016000CD010010CD010010CD010010CD01001017
:10017000CD010010CD010010CD010010CD01001007
:10018000CD010010CD010010CD010010CD010010F7
:10019000CD010010CD010010CD010010CD010010E7
:1001A000CD010010CD010010CD010010CD010010D7
:1001B000CD010010CD010010CD010010CD010010C7
:1001C00000BE00BE00BE00BE00BE00BE00F04BF888
:1001D000103800BEF2EB8871702C0310982C0310BD
:1001E0003402001090A31AE700202149086006C8D5
:1001F00081F3088810471F48006800282FD10DA4FC
:100200000ECC002902D000F012F8F9E71A491B4A77
:10021000002000E001C19142FCD1194988471949E9
:1002200088471949884700BEFDE701C901C29A42C3
:10023000FBD37047982C0310C00000201418002036
:10024000EC4303100000042000000420EC430310E2
:1002500000100420001004200000000070470B482C
:1002600003F04CFE0047EFF30580C0B2704700007A
:1002700008ED00E0000000D0181800201819012037
:100280005D220010E5020010812300105756000087
:1002900006005250ABB36053ACE40210060052505B
:1002A000861C03027CE00210060052505422A29DDC
:1002B000BCE4021005005250DE65F468EC43031004
:1002C000F8B5C046044B10B5002B03D003490448D1
:1002D00000E000BF10BDC04600000000B8180120BB
:1002E00098030210F0B5DE464E4657464546E0B547
:1002F000D3B005F0C9FD0D2000F01EFED0231B0673
:10030000994680234A469B019362012100220D20D9
:1003100000F000FE322001F011FB4B465B689B04AD
:1003200006D48B4803F0EAFD002103000020984723
:1003300000F036F907F0E2FF00F052FB90220021B6
:1003400052000AA805F002FB824B9B46824B0293A7
:10035000824B0593824B0393824B9846824B4746D0
:100360000193824B0493824B0693824B07930123A4
:100370009A4606F051FB4B4652465B685B0B1A42AD
:100380004CD14B465B685B0B1A4218D100250DAC73
:1003900002E018340C2DECD0200021000C3800F0C5
:1003A0008DF94B2001F0CAFA4B4652465B68013585
:1003B0005B0B1A42EDD00C2DDBD0012D75D04821FE
:1003C0000AA800F011FD0500039805F09DFB00242C
:1003D0000026B846A300EF58B3005859391C04F062
:1003E0006FFF002800D02600381C04F0E3FF013422
:1003F00002000B00404605F03BFD1C2CEAD14746AD
:10040000002E5DD037221C2E63D15B461B68092B62
:100410005BDC0299CA545A4601331360019B1B7876
:10042000002B0BD15B461B68002BA2D006F054FAC0
:100430000400051E15D006F057FA9AE7002007F0D1
:100440004BFD002895D0002308AA08930121938032
:1004500000201300002207F0A5FD0022019B1A7066
:1004600087E75B46029E19683278049805F000FD24
:100470005B46B4461B6800206344013B1B789846EA
:1004800007F02AFD061E00D173E7424608AB089428
:1004900001211A709C800022002007F083FD434652
:1004A000002B1DD1019B1D7063E75B461B68092B68
:1004B00012DC2A220299CA545A46013313607EE79D
:1004C0005B461B682C22092BA3DD059805F01CFB5D
:1004D000A4E70336F2B298E7059805F015FB6EE73E
:1004E000069805F011FB5B461C68002C04DD029A9F
:1004F00053781370012C04DC5B46013C35001C6012
:10050000D0E793785370022CF6DDD3789370032CE8
:10051000F2DD1379D370042CEEDD53791371052CC1
:10052000EADD93795371062CE6DDD3799371072CBC
:10053000E2DD137AD371082CDEDD537A1372092CB5
:10054000DAD0220000210798093A05F0FFF9D3E735
:1005500055420000181401200C14012098030210C9
:10056000A8030210B003021013190120B4030210F3
:10057000D4030210151401207047C0467047C046CE
:100580007047C0467047C0460020704710B51A003B
:1005900002AB002100201B7807F0BAFC10BDC0465A
:1005A000F0B5C64600B51E4C86B06421200008F0A8
:1005B000BFF90321102000F095FC0321112000F069
:1005C00091FCF22302AA1B01138003AB984623235C
:1005D000414600250B80134B04AF3B80124B05AE08
:1005E00033806B2102232000009508F0CBF94246AE
:1005F00002236B212000009508F0C4F93A00022381
:1006000019212000009508F0BDF9022332001921BC
:100610002000009508F0B6F906B080BCB846F0BDE1
:10062000901200202057000023180000A823F0B5E6
:10063000D6464F4646469A46C0B586B06B465246A9
:10064000DA7301231C4D993A06000F0000936A44A7
:100650006B212800994608F095F9002304AC9846D0
:10066000220000936B212800063308F0F3F9238859
:1006700052463B80638819217B80A3882800BB8079
:100680006B46DA734B46993A00936A4408F07AF95C
:1006900043462200009319212800063308F0DAF9B6
:1006A0002388338063887380A388B38006B0E0BC5E
:1006B000BA46B146A846F0BD9012002070B584B08D
:1006C00002AE05000C0068463100FFF7AFFF0023C3
:1006D000F05E04F015FE1E4904F0BBFD6B46286079
:1006E0000020185E04F00CFE1A4904F09EFD8121E2
:1006F000C90504F0AEFD20600223F05E04F000FEA8
:10070000134904F0A6FD6B4668600220185E04F0F1
:10071000F7FD104904F089FD8121C90504F099FD18
:1007200060600423F05E04F0EBFD094904F091FDE4
:100730006B46A8600420185E04F0E2FD054904F051
:1007400074FD8121C90504F084FDA06004B070BD72
:10075000295C0F3C00FEFF4610B504000C2200216E
:1007600005F0F4F8200010BD10B504000C220021A3
:1007700005F0ECF8200010BD10B504000C2200219B
:1007800005F0E4F8200010BD012070477047C04616
:100790000300202918D094228258002A14D080699E
:1007A000814213D0012A0FD0D86B814215D0022A82
:1007B0000AD0186E814212D0032A05D084229A589A
:1007C00000208A420DD070470020FCE70022D000B4
:1007D0008018800004301818F5E70122F7E702229C
:1007E000F5E70322F3E7C0467047C046B8228258B7
:1007F0000300002A17D098201858814215D0012AEA
:1008000011D09C201858814214D0022A0BD0A0206D
:100810001858814210D0032A05D0A4229A580020EB
:100820008A420BD070470020FCE700222A32920057
:10083000D058F7E70122F9E70222F7E70322F5E7AC
:1008400010B502480CF0A0FA10BDC0463C0C0120C7
:10085000942370B5C55804000E00002D3AD083696A
:10086000202B20D0012D35D0E36B202B22D0022D60
:1008700030D0236E202B25D0032D2BD08423E3589A
:100880000025202B01D0280070BD6833E0583100CE
:100890001EF0BCFE03230028F5D1DD00ED18AD00ED
:1008A00004356519EFE7C0691EF0B0FE0028D9D104
:1008B0000023F2E73100206C1EF0A8FE0028D6D1FC
:1008C0000123EAE73100606E1EF0A0FE0028D3D1BC
:1008D0000223E2E70025D6E702680300126A1848FF
:1008E00010B582421CD1202918D094229A58002A8F
:1008F00014D09869814216D0012A0FD0D86B81425A
:1009000018D0022A0AD0186E814215D0032A05D0C9
:1009100084229A580020914210D010BD0020FCE79C
:1009200018009047F9E70022D000801880000430BA
:100930001818F2E70122F7E70222F5E70322F3E7AE
:10094000910700100368254A5B6A70B504000D002A
:1009500093423ED19423C658002E3DD08369202B6C
:1009600012D0012E38D0E36B202B19D0022E33D0B9
:10097000236E202B1CD0032E2ED08423E358002678
:10098000202B1DD0300070BDC0691EF03FFE002836
:10099000E7D10023DE00F618B6000436A619F1E709
:1009A0002900206C1EF032FE0028DFD10123F1E780
:1009B0002900606E1EF02AFE0028DCD10223E9E740
:1009C0006833E05829001EF021FE03230028D9D106
:1009D000E0E798470600D5E70026D3E75108001066
:1009E000F0B5CE46474680B58FB017F0E5FAD04A4D
:1009F000D04D537811781B020B43917809041943A9
:100A0000D3781B060B439B181A682B609A1A11881F
:100A1000042902D99288002A09D100210322C6485C
:100A200005F026FA0FB0C0BCB946B046F0BD9958E3
:100A30000329F3D1C14E300019F010FBC04C00283F
:100A400000D0ADE105AE300016F0B2F89423E358C3
:100A5000002B00D1B5E1A2692C2A00D1D0E0012BF6
:100A600000D1FAE0E26B2C2A00D1C9E0022B00D1C0
:100A7000F3E0226E2C2A00D1C2E0032B00D1ECE07F
:100A80008423E3582C2B00D1BAE02C21AD480CF084
:100A9000B3FC0421AC480CF0AFFC300013F098FC20
:100AA0009423E358002B00D191E1A2692D2A00D1B3
:100AB0009EE0012B00D1ABE0E26B2D2A00D197E044
:100AC000022B00D1A4E0226E2D2A00D190E0032B4E
:100AD00000D19DE08423E3582D2B00D188E02D2107
:100AE00098480CF089FC042197480CF085FC3000F4
:100AF00016F0F6FC9423E358002B00D164E1A269C0
:100B0000092A6DD0012B00D1CCE0E26B092A67D015
:100B1000022B00D1C6E0226E092A61D0032B00D13E
:100B2000C0E08423E358092B5AD0092185480CF0F2
:100B300063FC042184480CF05FFC300016F0BAFE20
:100B40009423E358002B00D138E1A269192A3FD041
:100B5000012B00D1CBE0E26B192A39D0022B00D156
:100B6000C5E0226E192A33D0032B00D1BFE08423C5
:100B7000E358192B2CD0192172480CF03DFC0421AC
:100B800071480CF039FC714E300019F067FA0028FA
:100B900000D0F1E06E4D6F4C280025600CF074FA27
:100BA000002120680CF090F86B4B186043691A68BC
:100BB000032A09D15A68012A06D19B680C2B03D15C
:100BC000037F012B00D12DE7644805F051F929E797
:100BD00063480CF011FC192162480CF00DFCD2E7BF
:100BE0005F480CF009FC09215E480CF005FCA4E705
:100BF0005B480CF001FC2D215A480CF0FDFB76E718
:100C000057480CF0F9FB2C2156480CF0F5FB44E753
:100C10005A1C9046D900C91889008C46A4446346E2
:100C2000181D0300320083CA83C383CA83C383CAE7
:100C300083C32D2063464246B82198619423E25035
:100C400063581A0026329200A0501A0046482A32F1
:100C500092000133A050635049E75A1C9046D900D6
:100C6000C91889008C46A4446346181D030032004D
:100C700083CA83C383CA83C383CA83C32C206346C6
:100C80004246B82198619423E25063581A002632F4
:100C90009200A0501A0035482A3292000133A05029
:100CA0006350FAE65A1C9046D900C91889008C4650
:100CB000A4446346181D0300320083CA83C383CA59
:100CC00083C383CA83C3092063464246B82198611F
:100CD0009423E25063581A0026329200A0501A0062
:100CE00023482A3292000133A050635025E75A1C52
:100CF0009446DA00D2189200A218111D0B0083CE80
:100D000083C383CE83C383CE83C319209423B821A6
:100D100090616246E25063581A0026329200A05059
:100D20001A0014482A3292000133A05063502AE777
:100D3000380502107C0B0120E4030210481B002040
:100D4000800B012030040210640402104C1B0020B0
:100D50003C0C01205C1B0020780B0120CC0402100D
:100D600078040210A8040210BD8D0010CD8C001074
:100D7000798B0010758C0010002229680292019274
:100D8000F022144D1202144B0092280022000BF0A6
:100D900051FF12481DF046FB300019F07BF9FAE6CE
:100DA0000F4B9422236000230E48A3502432A350FB
:100DB0001DF038FB300019F06DF943E6012294462E
:100DC00097E7012290464AE7012290466CE701220C
:100DD00090461FE73C0C0120601B002041080010DA
:100DE0000C0502108D07001010B5002909DD0D4B10
:100DF00089001B681C690023C258E25004339942E1
:100E0000FAD1094C20680CF0C7FA002805D100215E
:100E100020680BF089FF006910BD044805F028F830
:100E20000020F9E7780B01205C1B0020F40402107D
:100E300000487047F4E102100048704704E10210D6
:100E400000487047A0E0021070B5002822D00428A6
:100E500029D8164B8000C55828001EF05DFCC0B292
:100E6000041C1F2814D8C026E4B2631CDBB25B004C
:100E7000B6001E43002808D000230D4AE95C013368
:100E80001180D9B202328C42F8D80A48068070BD6F
:100E90001F24E8E7C126054B02220548196804F023
:100EA0005BFDB600F1E70020F1E7C0469C11002091
:100EB0006214012060140120E12110B549020748A5
:100EC00001F05CF90221002000F00CF80221012061
:100ED00000F008F8024B1B7810BDC04600400340EC
:100EE000902C0310094A10B59446402483006344B3
:100EF0001A68C000624080341440802252011343BB
:100F00001C60034B9C466044416010BD04C001401E
:100F100000400140074B80009C4660440368C900C4
:100F200092000A435A400C231A4080235B0103437A
:100F30001A60704704C001400123D022834012068A
:100F400093629361094A40219446830063441A687E
:100F5000C0004A4080311140802252011343196081
:100F6000034B9C46052360444360704704C0014026
:100F70000040014070B5EFF3108C72B60D4D2B6838
:100F8000002BFCD0BFF35F8F0724CB08C618C05CD2
:100F900001230C40A3401C000440034207D1184326
:100FA0003070BFF35F8F2C608CF3108870BD100021
:100FB00001F0E8F92C0100D0F8B54746CE46884646
:100FC00080B5EFF3108C72B6214D2C68002CFCD04C
:100FD000BFF35F8F9A422CD8D4080727055D061906
:100FE00001241740BC402C421FD00721012789460D
:100FF00009E0D408055D06194C4639001440A140AB
:101000000C00294211D001329342F2D20120404219
:10101000BFF35F8F00220E4B1A608CF310880028FC
:101020000FDBC0BCB946B046F8BD25431000357093
:10103000EEE7BFF35F8F00232B608CF31088012055
:1010400040424346002BECD0089801F09BF9C04683
:101050002C0100D0024B18688007C00F7047C046B3
:1010600000C006400021044B044ABFF35F8F02C357
:101070009342FAD17047C046000100D0800100D0F1
:10108000044A1078431CDBB2172B00D910231370CD
:101090007047C046B011002010B5064B064C82B018
:1010A0000100009318221F232000FFF785FF02B0E4
:1010B00010BDC04610E202101C1401200123834021
:1010C000002904D0034A1360034A13607047034A9F
:1010D0001360FBE780E200E000E100E080E100E077
:1010E000024B10309B688000C058704700ED00E054
:1010F00070B50D00EFF3108672B60F4A1368002B1F
:10110000FCD0BFF35F8F0D4B10309B6884001B59E0
:101110000B4A934203D09D4201D001F04BF9074B9B
:101120009B681D51BFF35F8FBFF35F8F0022024B9F
:101130001A6086F3108870BD240100D000ED00E035
:10114000CD010010F0B5DE4657464E464546E0B5A7
:101150000C0083B0EFF3108A72B6604A1368002B5C
:10116000FCD0BFF35F8F1022914681444A465C4B0E
:1011700096009B689D595B4B98469D4205D0A542C1
:1011800016D0594FEB1B2F2B14D9554B9B689D51F3
:10119000BFF35F8FBFF35F8F0022504B1A608AF35B
:1011A000108803B0F0BCBB46B246A946A046F0BDCD
:1011B0001D00EAE7012383409B465A464B4B1B68C0
:1011C0001A4000925A464A4B1A60BFF35F8FFFF7EE
:1011D0004AF8031E01901DD12A0001339A439068FA
:1011E000844208D171E04B005B189B00FB189868A3
:1011F000A04245D01A00062151560029F3DA844254
:101200006AD0009B002B34D05A463A4B1A60374BB9
:101210001A60BAE7814530D12A0001239A439068C9
:101220008442E8D1062151561300002940DB4A00D0
:10123000501880003C188046A0689860E079D8710A
:1012400006202056987100282FDBA488F81A640520
:10125000241544440019E0240005400D24022043D5
:1012600098805318244A9B001078FB1898711170CD
:10127000C7E75A461E4B1A6087E701F09BF8CBE799
:10128000062159560029D2DA0199002910D1FF31DF
:1012900091711A49918018490A789A71184ADB1B92
:1012A0005B415A43120D0A70ABE7BD200002D7E73D
:1012B000144A1549D21A083A5002400D0143998048
:1012C000124952080A43DA809BE70621515613005F
:1012D0000029ACDA4546DEE71300D5E7240100D04B
:1012E00000ED00E0CD010010B411002000E100E0AD
:1012F00080E100E080E200E01219012000BDFFFF64
:10130000AAAA0000EE11002000F0FFFF00F8FFFF86
:10131000F8B5012504000543FEF7A5FFEFF3108C97
:1013200072B6214A1368002BFCD0BFF35F8F1F4EAB
:101330002100B7681E4A1F4B891A49414B431B0DB8
:1013400059B28300F858A8421CD00623D3568B42CA
:101350001CD01223D3568B4222D01E23D3568B424D
:1013600020D02A23D35603208B4210D0124B1A7858
:101370001970A271BFF35F8F00220B4B1A608CF3C0
:101380001088F8BDB2680D48D050EFE70020430048
:101390001B189B00D218FF239371094B9380E5E73C
:1013A0000120F4E70220F2E7240100D000ED00E084
:1013B000B4110020AAAA000012190120CD010010CA
:1013C00000BDFFFF054B064A1360064A13605360D9
:1013D0009360D36013615361936170478080808014
:1013E00000E400E004E400E0024B9C466144890014
:1013F000016070474000003483680B4810B5844694
:10140000614462441201090159189B185C684A68DA
:101410000120944201D802D00020C0B210BD1A6849
:101420000B689A42F9D8F7E7FFFFFF0F0A4B1968DC
:10143000EFF3108072B60A68002AFCD0BFF35F8F0A
:101440001B68BFF35F8F00221A6080F3108840BFD3
:10145000002000217047C046EC180120F8B557461F
:1014600045464E46DE46E0B598460CAB1C780DABC3
:101470001B78070091469A460568002C5AD1AC7B30
:10148000002C3BD0660029683619033E89194B7839
:10149000AB73002B00D1EB7300238B704B700B7080
:1014A0002B4BE218BB6812019B184A461A60424651
:1014B0005A600A9A9A600B9ADA6000238B704B701C
:1014C0000B706B7B9B46002B27D022006B68594624
:1014D000A86898475B465B005B442A68033B00288A
:1014E00012D058469619B070D118D35C002B00D09A
:1014F00073705B460C706B735C450FD0F0BCBB46E1
:10150000B246A946A046F8BDD3189C709119925DC9
:10151000002A00D05A705B460B706C734A464346F3
:10152000387D00F07BFB051E0AD10E9B002BE5D019
:101530001D70E3E7660029683619033E8919AFE795
:101540005346002BF1D12100386800F0B1FDECE7E3
:10155000FFFFFF0FF0B5DE4657464E4645460023D7
:10156000E0B58DB00A936A4B8200D75800239B46A2
:101570000B9000F0BFFA02000B007868EFF31089BF
:1015800072B64D4601680029FCD0A946BFF35F8FB3
:1015900039684E7B8C46002E2ED0BC685D49A24631
:1015A000711809018A4451460868496804000D0011
:1015B000A41A9D41002D5EDD02000B000B9800F087
:1015C0002DFB002300229A46002308920993002352
:1015D00098467B68BFF35F8F5A461A6089F310887C
:1015E0004346002B12D10028C3D10DB0F0BCBB463E
:1015F000B246A946A046F0BD002300229A46002329
:1016000008920993002300209846E2E70A9B51467E
:1016100018023043C047069007917A68EFF31085AF
:1016200072B654461368002BFCD0A246BFF35F8FFE
:101630000699079A002A3BDB114302D03B69002B35
:1016400052D13B68D97B002905D01A68480041185F
:101650005218033A5670DE73FA68013E935D013307
:1016600093555B463B617B68BFF35F8F5A461A60B8
:1016700085F310887DE7002D01D1002C9CD100213D
:10168000604600F07DFC53465C681B680893099433
:1016900053469B6898465346DB689A46FB689B19FD
:1016A000013B1B780A931B0203433B61002090E738
:1016B0003B69002BC5D0089B099C5B1A9441089894
:1016C00009991A002300A14219D899421BD0002180
:1016D000049101310391514601914146380002962F
:1016E0000091FFF7BBFEBCE700F004FA069A079BE7
:1016F00012184B41994202D8E9D19042E7D9012210
:101700005242D317E3E708999142E0D9F7E7C04680
:10171000D0180120FFFFFF0FF8B557464E4645464B
:10172000DE46E0B53E4D824689466A68EFF3108892
:1017300072B61368002BFCD0BFF35F8F2E68B47BAA
:10174000002C48D0670033683F19033FDB195A78F3
:10175000B273002A00D1F273324AA118AA680901B3
:10176000521851461160494651602F49916000213D
:10177000D160997059701970737B9B46002B41D0D2
:10178000220073685946B06898475B465B005B442B
:101790003268033B00282CD05846D719B870D118AE
:1017A000D35C002B00D07B705B460C7073735C4580
:1017B00029D00026EB681B19013B19786B68BFF331
:1017C0005F8F00221A6088F310880020002E0AD153
:1017D0000802204307E06B68BFF35F8F1C6088F34B
:1017E000108801204042F0BCBB46B246A946A04644
:1017F000F8BDD3189C70D119D25D002A00D05A7060
:101800005B460B70747352464B46287D00F006FA17
:10181000061ECED02100286800F04AFCCAE7C04668
:10182000FC110020FFFFFF0F2D14001010B5124C0B
:101830006368002B04D00A211048FFF7D5FD10BDC6
:1018400023000F4A1021206800F0A0FA032000F0C6
:1018500045F9032000F050FA03200A4900F098F9F6
:10186000FFF70EFC084B9C46032360442375074B8F
:1018700080006060DC60DEE7FC110020EC180120D5
:10188000F91300105515001040000034D018012045
:10189000F0B504000D0006267642F717C646361945
:1018A0006F4100B58F4213D810D000F023F93200F9
:1018B0003B00121A8B41002B14DC002B37D029007F
:1018C000200000F055F980BCB846F0BD8642ECD946
:1018D0000026002700F00EF932003B00121A8B415F
:1018E000002BEADD30003900FFF716FF0028E6DBA9
:1018F00000239846BC460F4A0F4F7B6A9C4504D88C
:10190000B96AB142DBD29C45D9D11168EFF310809E
:1019100072B60B68002BFCD0BFF35F8F1368BFF368
:101920005F8F4146196080F3108820BFE5E7002AE9
:10193000C5D0D7E7EC1801200040054070B506007F
:1019400000F0D8F8FA2204000D0000233000002136
:10195000920003F047FC001969418D4205D802D07E
:10196000FFF796FF70BD8442FAD901204042C117AB
:10197000F6E7C046F8B5CE46474680B505000C00F0
:10198000FFF7CAFE031E11DC244A0020536AA3425B
:1019900003D3926A0130AA4203D3C0BCB946B04611
:1019A000F8BD1B1B5A1E9341D8B2F6E720BF1C4E50
:1019B0007168EFF3108772B60A68002AFCD0BFF393
:1019C0005F8FDAB29446FF2230681A40417B61454E
:1019D0000AD00168894651008846494690444144EE
:1019E0000339897800290FD0F1681B0A8A18013A57
:1019F0001278DBB29A420CD07368BFF35F8F00227B
:101A00001A6087F31088BFE732699342F4D13161DD
:101A1000F2E7614600F04CFBEEE7C04600400540AF
:101A2000FC110020F0B5D6464F464646C0B5EFF350
:101A300005823F23134018001038EFF3108C72B664
:101A400020490A68002AFCD0BFF35F8F01221700EB
:101A500087401D4C1600A24667631C4C2578A046A3
:101A60002C00C4402640224215D05246566A184ADD
:101A70008400A258964218D34246164BBD43E35801
:101A80001570BFF35F8F00220A608CF31088002B63
:101A900006D0984704E0BFF35F8F0E608CF3108888
:101AA000E0BCBA46B146A846F0BD0B4A9B00904642
:101AB00043441A681A60BFF35F8F00230B608CF3F6
:101AC0001088EDE7280100D00040054014190120DE
:101AD000F8180120FC120120D03F054010B5034B3F
:101AE00001001800024AFFF745FA10BD1119012044
:101AF00038E20210034B596A0A00986A596A8A420E
:101B0000FAD170470040054070B504000D00174A37
:101B1000536A1900966A536A8B42FAD13000190051
:101B200024184D41AB4216D813D0104B2A005B6AE3
:101B30009D4203D90D494B6A9342FCD3934207D18E
:101B40000A4A02E0516A994202D1916AA142F9D34C
:101B500070BDA642E9D9054B5B6A1C005A1CEFD048
:101B6000012201246442E5175242E3E700400540A8
:101B7000064A536A9942FCD807D1044B02E05A6ADC
:101B8000914202D19A6A8242F9D3704700400540DF
:101B900070B504000D00EFF3108672B61A4A136890
:101BA000002BFCD0BFF35F8F002D1BD02000FFF770
:101BB00097FA164981420AD02000FFF799FA0121CD
:101BC0002000FFF77BFA0123A340114A1360114B59
:101BD000A400E550BFF35F8F00220B4B1A6086F321
:101BE000108870BD0121A1400A4BA200D5500A4BBC
:101BF00020001A788A4305491A70FFF7A3FA0021DA
:101C00002000FFF75BFAE5E7280100D0251A001055
:101C100038600540FC12012014190120F0B54F4630
:101C2000D6464646C0B507002E4C616A0D00A66A2E
:101C3000616AA942FAD18B4208D805D00120E0BCE4
:101C4000BA46B146A846F0BDB242F7D9EFF3108AC2
:101C500072B6254801680029FCD0BFF35F8F0125CB
:101C6000BD4022491F4C8846097889462943C9B29C
:101C70008C46414660460870391D890065630A51EB
:101C80001B49B8004350216A0020294219D0616ADB
:101C90000800A66A616A8142FAD18B4219D801D143
:101CA000B24216D8CC450BD00E4B1F221D625D638D
:101CB00001233A4093400F4A136043464A461A7044
:101CC0000120BFF35F8F0022074B1A608AF3108850
:101CD000B5E70020BFF35F8F0022034B1A608AF341
:101CE0001088ACE700400540280100D014190120FD
:101CF000F818012080E200E0EFF3108C72B60A4978
:101D00000B68002BFCD0BFF35F8F01238340074A91
:101D10000748136202789A430270BFF35F8F002373
:101D20000B608CF310887047280100D000400540FC
:101D30001419012070B506000D00140000291DD0F3
:101D4000002A12D073688068984762006B001219ED
:101D50005B193168033A033B002808D08A18957054
:101D6000C818CB5C002B0BD10470280070BDCB18B9
:101D70009C7088188A5C002A05D105702000F5E760
:101D800053700470F1E75A700570F7E710B583607F
:101D90000023CCB243730133426004738373C47372
:101DA0000068421C012C05D90133DBB213700332E9
:101DB0009C42F9D1FF230B405A00D318C0180023CE
:101DC0000338437010BDC04670B505000C1E07D027
:101DD000630001681B19033BCB185A78002A01D114
:101DE000200070BD500080180338091800204E787C
:101DF0004870210058702800FFF79CFF3100040054
:101E00002800FFF7E1FF0600002C20D00028E7D0D3
:101E1000320021006B68A86898477200630092192D
:101E20001B192968033A033B002808D08A189470CC
:101E3000C818CB5C002B00D053700670D0E7CB18CD
:101E40009E7088188A5C002A00D05A700470340092
:101E5000C6E7C046F8B557464E464546DE464C00F6
:101E6000E0B5641817000268033C0500105D131903
:101E70000E009C46002852D0430098461B18033B96
:101E8000D31859788A46002919D1002F0CD0EC7B41
:101E9000002C50D063001B19D318033B5E70EE7307
:101EA000434619180339531800229A7000236246DA
:101EB0005370F0BCBB46B246A946A046F8BD4900E7
:101EC000514403395218517888460021517089468F
:101ED0005970524601002800FFF72CFF4346824606
:101EE000002B07D05B0029684344033BCB185A788A
:101EF000002A2CD1514642462800FFF71BFF010063
:101F0000002F1AD0A4462A68EF7B9444002F04D0F7
:101F10007B00DB19D318033B5E70EE7310E0002FDB
:101F2000C4D0E97B002910D04B005B18D318033BC9
:101F30005E70EE73BAE7EE73B6E7A4462A6894447F
:101F40000029B3D04B009846AAE7EE73AEE75000E5
:101F500080180338091848788346484648705870F6
:101F600041462800FFF7E6FE594680462800FFF765
:101F70002BFF414602002800FFF7DCFE8046B9E750
:101F8000F8B557464E464546DE46E0B5467B026804
:101F90007500AD19033D0F00515D531904009C46B7
:101FA000002953D04B0098465B18033BD318587850
:101FB000824600281BD1002F0CD0E57B002D51D08C
:101FC0006B005B19D318033B5E70E67343465818E9
:101FD0000338131800229A700023624630005370B1
:101FE0006173F0BCBB46B246A946A046F8BD4000AE
:101FF00050440338121850788046002050708146B3
:10200000587052462000FFF795FE43468246002B4B
:1020100007D05B0021684344033BCB185A78002A61
:102020002CD1514642462000FFF784FE0100002FCC
:102030001AD0AC462268E77B9444002F04D07B0082
:10204000DB19D318033B5E70E67310E0002FC3D09A
:10205000C07B002810D043001B18D318033B5E70D0
:10206000E673B9E7E673B5E7AC4622689444002806
:10207000B2D043009846A9E7E673ADE75000801858
:1020800003380918487883464846487058704146D6
:102090002000FFF74FFE594680462000FFF794FED0
:1020A000414602002000FFF745FE8046B9E7C046E2
:1020B00070B5050000292CD0437B8B422ED04C00FC
:1020C00000686418033C0419A278002A21D0530048
:1020D0009B18033BC25CC6188A4202D11BE0002A4F
:1020E00008D053009B18033BC3185A788A42F6D194
:1020F00062785A70002301222800A3706370FFF7F2
:10210000A9FE697B02002800FFF714FE6873012016
:1021100000E0002070BD63783370EBE70122190006
:10212000FFF798FEF2E7C04610B50400FEF7A8FFDF
:1021300001002000FFF758F9FF232371BFF35F8FE1
:1021400010BDC04610B50400FEF79AFF0100200044
:10215000FFF74AF9FF23A380BFF35F8F10BDC0468E
:1021600010B504000120FEF797FF034BC3189B0036
:102170002360BFF35F8F10BD40000034F8B504004A
:1021800006200D0000F076FA002844D02A4B2B4997
:10219000E21853425A418023DB039C469205284BA8
:1021A00062441A60274B1A6010008B689843FBD179
:1021B000214B254AE31859424B4180215B004900DD
:1021C0000620995200F056FA2900C00001F0F0FEF6
:1021D000C30921D140270121260080256162A36225
:1021E00000232C36AD0135432B60062000F042FA67
:1021F0003900800001F0DCFE6022E36A53400E32B9
:102200001A4080235B0133431A60104B2363102371
:102210002B600D3BA364F8BD0D4A934203D9002304
:102220000C4F0D49D8E77F220240013252089F012E
:102230001900BF181300CFE70080FCBF00C00040AA
:1022400000E0004000F000400819012001030000F8
:10225000FEFF0000C0FF3F00FFFF00002B4B2C4A99
:1022600070B51A602B4A2C4B2C491A6014008B68ED
:102270009C43FBD12A4D2B4EB54208D2013E761B22
:10228000B60808CD984723000134B342F9D100F0D5
:1022900097F8254A204B1A60204A9368DB43DB01FC
:1022A000DD09002BF9D14022204B214E214C9A67A9
:1022B0005A671A67DA66B44208D2236820000834E5
:1022C000002B1FD0FFF73EFFB442F6D31A4C1B4E33
:1022D000C022B168200003F03FFBB460FEF7C2FEED
:1022E000FFF770F8FFF7A2FA154C164EB44208D269
:1022F000013E361BB60808CC98472B0001359E429C
:10230000F9D170BDFFF710FFD5E7C04600E00040EF
:10231000BFCDFBFEFE7F3C0000F0004000C000404F
:10232000F017002000180020FFFFFF0100F001401F
:10233000F0170020E81700200000002000ED00E06A
:10234000001800201418002000BEFDE7094A030011
:102350001068002805D00849C3188B4207D81360BD
:10236000704706480449C31810608B42F7D9012012
:102370004042F5E7AC1401200000042018190120A8
:1023800000BEFDE70FB400B5084883B003F0BCFB06
:10239000049B002B07D005A91800019101F088FDCE
:1023A000034803F0B1FB00BEFDE7C0465CE202104B
:1023B00054F5021010B50148FFF7E4FF6CE202107B
:1023C00010B50C2082B000F0AFF9FEF743FE0028F4
:1023D00010D0864B86488649864A186059609860B6
:1023E000D960186159619861D961186259625A625D
:1023F00002B010BD804CA06700F09EF901227F4B17
:102400001A60636C012BFCD103227D4B1A607A4A5F
:10241000936B012BFCD1013301217A4A7A48009356
:10242000043300F02DF90523784A00930121784800
:1024300000F026F9774B5A68FF2A02D88022520012
:102440005A6080226E4B694C12011A602169002982
:1024500005D0606901F0ACFD01300138FDD1E0220A
:102460006C4B6D4819680A4002600222196851409D
:1024700001320A40042102609A681142FCD0802196
:10248000664A09011160802252005A60644B236140
:10249000644B5968FF2900D85A6003220121574B29
:1024A0001A60604A93681942FCD0E0231068034028
:1024B0005D480360126803234A4002211340594AD1
:1024C000036093681942FCD08021584B09011960C0
:1024D0008021574B490051606361564B5A68FF2A6F
:1024E00000D859608022544B12011A60E16900291A
:1024F00005D0606901F05CFD01300138FDD1E023B9
:102500004C4A11680B404D490B6080214C4B09012E
:1025100019608021364B49005160E361494B5A688C
:10252000FF2A00D859608022474B12011A60216AA5
:10253000002905D0606901F03BFD01300138FDD173
:10254000E023404A11680B4040490B608021404B1A
:102550000901196080235B0053608022244BD20262
:1025600023623C4B5968914200D25A6080223A4B18
:1025700012011A60616A002905D0606901F018FD36
:1025800001300138FDD1E023324A11680B40334954
:102590000B608021324B090119608023DB025360FC
:1025A000144B63622F4B5A68FF2A02D880225200D4
:1025B0005A6080222C4B12011A60A169002905D0B3
:1025C000606901F0F5FC01300138FDD1E023254AB6
:1025D00011680B4025490B608021254B09011960CA
:1025E00080235B005360124BA36101E718180020A1
:1025F000006CDC021BB70000008000403CB00040D3
:1026000030B00040002F685900800240008C86479F
:1026100000C00240308000403090004030A00040B8
:10262000001BB7003C8000403C9000403CA00040B4
:10263000405973075480004054B00040549000400B
:1026400054A000406080004060B0004060900040B6
:1026500060A000406C8000406CB000406C90004076
:102660006CA000404880004048B0004048900040C6
:1026700048A00040014B8000C05870471818002047
:10268000F8B504000C2017001D000E0001F090FCAE
:1026900043011B1A9901C91AC90009188901380098
:1026A00001F086FC069B29041B0319432368002BB9
:1026B00020DB194B194DE3185A4253418022520135
:1026C00094461B03164A63441360164A13601F00A6
:1026D000AA689743FBD1C023221D9B0113432122EB
:1026E0002660A0601A602268002AFCDA0822E160F5
:1026F0001A60F8BD3F2322681340B342D9D1A368C2
:102700001B051B0D8342D4D1EE22E368D202134095
:102710008B42CED1EDE7C0460040FDBF00C0004077
:1027200000E0004000F000408023024A9B00034389
:10273000D362704700800540AA23064A1B0113603C
:102740002F230549D360054B19605368002BFCDA31
:102750007047C0460040024000B0FA0000600240EE
:102760009A4200D2885470477047C046F8B5574621
:102770004546DE464E46E0B598460A9B06009A4618
:102780000D9B0F00934615009B0710D10B9B0C9AD5
:1027900093420CD213005C460B9A9D1A5D442200B2
:1027A0004346013439002020B047A542F7D10B9CA5
:1027B0006319002C09D01D0053462A1B013C185DEB
:1027C00039004346B047002CF6D10D9B9B070ED530
:1027D0005B46EC1A0C9BA34209D999462A00434652
:1027E000390020200134B0470135A145F6D8280032
:1027F000F0BCBB46B246A946A046F8BDF0B54F4670
:102800004646D646C0B584B098460EAB1B78944673
:102810009946129B0D9C109F119E9A0724D4002E5E
:102820006AD1BC4220D201221A409246202C00D10B
:10283000D2E00C9A551E302201E0202C30D0013419
:102840002A55A742F9D85246002A0DD0B4420BD2DD
:102850000C9A551E3022202C02D126E0202C63D069
:1028600001342A55B442F9D1DA0634D55A0564D474
:10287000002C5ED10F9A102A00D197E0022A00D1D5
:10288000A8E030220C9C227001244A46002A5ED126
:102890005A0700D483E02B220C9D2A5501341CE0FA
:1028A0005246002A02D0202E3ED92024DA0614D522
:1028B0005A0512D4202F00D1A1E0202E3DD1202690
:1028C0001F2234000F9D102D00D18BE0022D52D01D
:1028D00030250C9FBD54202CD7D103930C9B62460E
:1028E0000093029643460194FFF740FF04B0E0BC1A
:1028F000BA46B146A846F0BD012215001D40AA46C1
:102900001A4229D04A46002A39D10C321A4236D10D
:10291000BC429BD2202C00D08BE710221A40202EE4
:10292000C3D8002AA2D1D8E72024DA06D5D55A0583
:1029300003D4A74225D0B44223D00F9A102A25D021
:10294000022A14D0202CC8D022000134C0E72D2246
:102950000C9D2A550134C0E7BC4200D384E7202CEB
:1029600000D066E710221A40002AE0D1B5E7202CFB
:10297000B3D02200013462250C9FBD54E2E7013E32
:10298000C6E7621E012C00D174E79BE79A0616D4B5
:10299000202CA2D078220C9D2A550134D2E71A07A8
:1029A0009BD520220C9D2A55013496E79A060FD418
:1029B00078220C9C227030226270022465E7202C61
:1029C00000D18AE758250C9A121915700134B9E71D
:1029D0005822EEE76222ECE7102255461A40002DFD
:1029E0009FD1C1E7023C9D0604D478250C9F3D553C
:1029F0001400A9E758250C9F3D551400A4E71F2299
:102A000060E7C04610B5002800D110BD03F02AF8D9
:102A1000FBE7C0460B0010B5002802D049681B68D0
:102A2000984710BDF0B557464E464546DE46E0B5E0
:102A300099B08246894690460893229A239B1000BB
:102A4000190001F08EFD002800D0CDE022982399D6
:102A50000122D94B524201F07FFD002800D0C3E093
:102A6000229823990122D54B524201F05FFD0028A4
:102A700000D0B9E0229823990022002301F056FDEE
:102A8000002800D0F1E1229E239F8023269ADB00BC
:102A90001A400D92269A1A4201D1062324938023CC
:102AA000269A1B011A403B0093460996334300D0F7
:102AB000B3E0002A00D0C2E1002300240A930B9463
:102AC000002304250993259B0024AB4200D95C1BFD
:102AD0000223269A1A400C92269A134203D06B4284
:102AE0006B415B421C40099B002B07D00A9A0B9B51
:102AF0003000390001F0B1FC06000F002298239944
:102B00000022002301F012FD002803D080210906D5
:102B10007B181F00269AAA4B009601971340089E27
:102B20000493249B03940293424633004946504643
:102B300000F0AAF90400002D67D02020269A49460B
:102B4000024013005A4253415B42621C18400A92F1
:102B5000330022004530D047099A6F1ED317D4188E
:102B60005C40D30F9B46002501E0202D13D008AA1E
:102B700094461F23200063440A2101355E1901F0A9
:102B800017FA3031317020000A2101F011FA2600C5
:102B90000400092EE9D805230693002304930A3381
:102BA00003935B46089E029310AB0A9A0093494632
:102BB0003300504605970195FFF720FE0C9A04005C
:102BC000002A22D04246851A259AAA421DD9B0462B
:102BD0005746160022004346494620200135B84793
:102BE0000134AE42F6D810E0269B42460493259B62
:102BF00049460393249B50460293229B239C0093B7
:102C00000194089B00F040F90400200019B0F0BCCA
:102C1000BB46B246A946A046F0BD6A4B78009C462A
:102C2000400D604401F0B0FC674A684B01F033FC92
:102C3000674A684B01F008FC674A3B031B0B1A43C9
:102C400004000D0009981100644B002201F0F3FB11
:102C5000634A644B01F01FFC02000B0020002900B6
:102C600001F0F2FB01F0A8FC099001F08DFC5E4A36
:102C70005E4B04000D0001F00EFC00225C4B01F0E5
:102C8000E3FB01F099FC5B4A5B4B29000C902000B0
:102C900001F001FC04000C980D0001F075FC574A8E
:102CA000574B01F0F8FB02000B002000290001F057
:102CB000C2FB04000D0002000B000A940B9501F00A
:102CC000EAFB04000D000A980B9902000B0001F0CA
:102CD000BBFB00220E900F914A4B2000290001F00F
:102CE000BCFB0022484B01F0AFFB02000B002000B0
:102CF000290001F0B2FB0022444B01F0A5FB0200C9
:102D00000B002000290001F0A8FB0A9A0B9B0D0084
:102D100080210400C905002001F08DFB02000B009A
:102D20002000290001F090FB02000B000E980F9983
:102D300001F093FB0022284B01F086FB344B0C9CE6
:102D40009C4664442305002201F0A5FB04000D000D
:102D500002000B00300039000A940B9501F0E6FBED
:102D600000285DD123002A00C625099963318D42D0
:102D7000AD4159466D420435002900D1A3E6134305
:102D800063D030003900234A234B01F0DDFB0028DB
:102D900007D0002230003900204B01F0C7FB00288B
:102DA00053D1249B002B00D18DE60D9B5A1E9341DD
:102DB000249AD31A249386E6FFFFEF7FFFFFEFFFED
:102DC000FFF7FFFF01FCFFFFFB799F501344D33F48
:102DD000B3C8608B288AC63F0000F03F0000F83F70
:102DE00061436F63A787D23F71A379094F930A406C
:102DF0000000E03F1655B5BBB16B0240EF39FAFE5B
:102E0000422EE63F00002C40000024400000184005
:102E1000FF0300002D431CEBE2361A3F80842E4155
:102E2000099B0022013B09932000164B290001F069
:102E300014FB0A00010003000A910B9294E700239F
:102E400000240A930B9400230993249A099B9A4225
:102E500014DDD31A013B24938023269ADB001A4306
:102E600000230025269209932DE68022120694461F
:102E7000229B1E00239B63441F0006E6002324932D
:102E8000EAE7C04600002440F0B54546DE464E461F
:102E90005746E0B595B08B46904699461E9A1F9BC3
:102EA0000A9019001000209D01F05BFB002800D063
:102EB000B0E11E981F990122C74B524201F036FB28
:102EC000002800D037E11E981F990122C34B5242BF
:102ED00001F042FB002800D0A7E01E981F990022B5
:102EE000BF4B01F039FB002800D088E01E981F99E5
:102EF0000022BC4B01F01AFB002800D07FE01E9896
:102F00001F990022002301F011FB002800D0FAE0F5
:102F100000230B938023229C229ADB001C401A4240
:102F200000D102E1092D00D87EE106A98C462C00D3
:102F3000172200233021093C62440133D154EF1A97
:102F4000202B00D132E1A342F7D10022A44B0692FC
:102F500007931E981F9901F02FFB050001F014FB49
:102F600002000B001E981F9901F065FA069A079B54
:102F700001F091FA0890099101F042FB060001F07E
:102F8000FFFA02000B000898099901F054FA002298
:102F9000954B0890099101F0DFFA002800D1D2E0AA
:102FA0000136300001F0ECFA069A079B01F0CCFAEA
:102FB000002801D000260135AA46002F00D098E055
:102FC000280001F0E1FA02000B001E981F9901F0A1
:102FD00032FA854B002206000F0001F0A7FA0CAB75
:102FE0009A46002845D10022300039007E4B01F07E
:102FF000B3FA00283DD1EB073BD5013539E0229BE0
:1030000042460493219B594603930A981E9B1F9C9A
:103010000295009301944B46FFF704FD15B0F0BCF8
:10302000BB46B246A946A046F0BD229B5B0767D4CB
:1030300003226E4B229901920391219902910093F0
:1030400042464B4659460A98FFF790FBE6E706AA28
:1030500094461723280063440A2101341E1900F006
:103060007FFF3031280031700A2100F079FF051E02
:1030700076D0202CEBD10323229A1340012B1DD1B3
:10308000219B002B1AD00B9B002B00D0BBE0229A77
:103090000C33134200D0B6E0219BA34200D887E056
:1030A00006AB9C4617223023624404E02199013488
:1030B00013558C4259D0202CF8D12024229B019406
:1030C0000393219B02935346B9E706AA944617231C
:1030D0000A216344300001341D1900F069FF3031CA
:1030E000297030000A21013F00F062FF092E46D905
:1030F0000600202CE9D155460CAB20249A46B8E7AF
:1031000004223B4B96E71E9A1F9B0020002101F0F2
:1031100092F901230B938023229C229ADB001E90BC
:103120001F911C401A4200D0FCE60022314B0627BA
:10313000069207930DE7229B0393219B029304239E
:1031400001932D4B7BE7002208980999264B01F04B
:10315000EDF9002800D02FE7002E4FD101362BE7E4
:103160000323229A1340012B68D0202CA6D00B9B5E
:10317000002B1FD02D235246135501349EE7554690
:10318000202CB9D030223B19002F4BD0172006A994
:10319000013409180A55202CAED09C42F6D10CAA55
:1031A00092462E2251465C1CCA5462E72024CCE68B
:1031B000202C83D0229B5B0708D4229B1B0700D4C2
:1031C0007CE7202352461355013477E72B235246E0
:1031D0001355013472E7C046FFFFEFFFFFFFEF7F9B
:1031E00065CDCD4165CDCDC10000E03F80E202104C
:1031F00078E2021080842E4188E20210F30700D4A6
:10320000DAE60136D8E6219B013B2193A34200D99F
:1032100046E7AAE7229B0393219B02930323019392
:10322000084B0CE72300BAE7074BEA009B185C68E1
:103230001B682F000693079400248AE6219B002B2D
:1032400093D020E784E2021030E40210F0B5454646
:10325000DE4657464E46E0B5A1B01D002A9B90467B
:103260000B93D04AD04B83468A461A60002900D17E
:10327000A4E1002328789946002800D1A6E1CB4B91
:103280005E460993CA4B4C46D34647460D930AE027
:10329000631C984622003B005946B04744462878B4
:1032A000002800D1CDE001352528F1D108239A4628
:1032B000043B9946023B9846013B00229C460C94F5
:1032C0002878691C0300203BDBB2102B03D8099C33
:1032D0009B00E3589F460300303B0C9C0A92092B4D
:1032E0007FD9002398462A2800D1C1E000239A46BE
:1032F0002E2800D190E00300683BDBB2122B1ED8D1
:10330000AC4A9B00D3589F4663460D001A43D7E74B
:1033100043460D001A43D3E74B460D001A43CFE74F
:1033200010230D001A43CBE753460D001A43C7E79D
:1033300080235B000A9A68781A430A9201310D00D3
:1033400067280AD82428A3D90300253BDBB2422BE7
:103350009ED80D9A9B00D3589F4601006939C9B287
:103360000F2995D801238B409C46934B9946634681
:103370004A4613400C9362464B461A4200D05EE226
:103380000A2900D124E1072982D10B9B02CB984660
:10339000002900D19BE121200A9A0243914610ABFB
:1033A0009C461F220F23404662440B959C46A04634
:1033B00015000C9B0A9002E0202B0CD011006446F3
:1033C0000C4020003730092C00D807380133E8546E
:1033D0000A090F29F0D80C930A9B44460B9D984686
:1033E00085E1002398460A9B45469C4600E0013152
:1033F000AB005B195B001D180878303D0300303BC3
:10340000092BF4D963460A930023A8469A460D0077
:1034100001312E2800D06EE780200A9AC0000243B6
:103420000A9230225242944668780B0084446246E5
:10343000092A00D82EE12A2800D13DE10D000131F2
:1034400059E7DA46A146B346B846C84503D8012332
:103450005B424344994643464A4651460020D8477A
:10346000200021B0F0BCBB46B246A946A046F0BD44
:103470000B9B04CB9046002A04DB68780B930D006D
:10348000013133E70A9A283802430A9242465242EF
:10349000687890460D000B93013127E7672800D12B
:1034A000C7E1472800D114E2452800D116E20A9A64
:1034B0000721049242460B9B0392073352468B43EB
:1034C000190002920CC93000009201930B91220066
:1034D0003B005946FFF7A6FA0400E0E680239B0074
:1034E00028E76878682800D11BE280230A9A013116
:1034F0001A430A9223E768786C2800D109E28023F6
:103500000A9A5B001A430A92013118E7462800D153
:103510008AE10A9A0721049242460B9B03920733E1
:1035200052468B43190002920CC93000009201935D
:103530000B9122003B005946FFF7A6FC0400AEE6C3
:10354000631C984622003B0059462520B04744465C
:10355000A5E60B9B04330C93631C99460A9B9A07C0
:1035600000D4E7E10B9B2200187859463B00B04796
:1035700043464444012B00D8B8E22B00B84625004E
:103580005F464C46994622004346013439002020CC
:10359000B047AC42F7D12C00BB464D4647460C9B8A
:1035A0000B937CE64D320010B018012090E202101F
:1035B00020E30210D4E2021041900000DC4B287896
:1035C0009B4600239946002800D058E600243CE79B
:1035D0000B9B02CB12930B789C4618005346002B92
:1035E00000D09CE0002812D002235B4201339946B0
:1035F00089444A460B008946110001E08B4203D002
:103600005A780133002AF9D149465B1A0C9380237A
:10361000DB0099460A9A13400B934B461A4204D09A
:103620000C9B534501D953460C93022399460A9AA1
:1036300013400A934B46134200D1B5E16346002B79
:1036400000D197E10B9B002B00D14CE1D1460B1B25
:103650009A462B00A1444D462200B9465F469B4640
:1036600009E04B463900541CB0475346185D00280A
:1036700000D158E122009542F3D15B46BB464F464C
:10368000A9461D004C460A9B002B00D072E1129BFC
:103690000B9304E655460A9AA900491949000133DB
:1036A0000D181878303D010030390929F4D9AA469F
:1036B0000A921D00591C1EE60B9BA87804CB02350C
:1036C000D143C9170A4092460B93691C13E60A9B23
:1036D00010211A008A4310001131084381468020CE
:1036E0001A00C00002401100034200D157E64B46C9
:1036F000082206935346059208320392002204934F
:103700000C9B0292019318AB2200009359463B0098
:103710003000FFF773F8434604000B93BFE5002821
:1037200000D174E75346013B60E7622800D1DFE136
:10373000582800D1ECE10A9980230A00DB001A40E6
:1037400010000A00194200D1BDE111239A430C92E6
:103750000C9A802311009B0019408C461A4200D01D
:1037600046E1802311005B00194089460B99043122
:103770000A911A4200D08FE213005B0600D59EE149
:1037800013001B0600D426E30B9B00229B5ED91777
:103790005A184A4092B2D90F0B91002B00D177E210
:1037A000100010AA944642461F23129252466344C8
:1037B000AA4614944D460400B946B0461F00139221
:1037C00001E0202D0FD020000A2100F0F1FB01358F
:1037D0007E193031317020000A2100F0E9FB26000B
:1037E0000400092EEDD8129B46469846139B4F467F
:1037F000A94655469A46149C0C9B0693434605934E
:10380000534604930A2303930B9B02934B46019365
:1038100018AB2200009359463B003000FEF7EEFF44
:103820000A9B04000B933AE520230A9A1A430A9252
:103830006FE680230A9A1B011A430A9237E678281A
:1038400000D0AFE10A9880230200DB001A4011008B
:103850000200184200D1D0E20D239A431000033336
:103860000A93802302009B001A409446184200D01D
:10387000ACE1802302005B001A4091460B9A0432AF
:103880000C92184200D04AE2430600D493E20B9B0C
:103890001B780893002B00D04BE11033984300298C
:1038A00000D146E1002399464346059353460493CD
:1038B0000A9B06900393002302934B46019318AB97
:1038C0002200009359463B003000FEF797FF0400AA
:1038D00065E680230A9A1B011A430A9220230A9A5A
:1038E0001A430A92E3E50B1B9A460C9B99462B0060
:1038F0005D469B4622003B002900B04753460134F9
:10390000185D0028F6D14B460C935B46AB461D0074
:10391000B9E6C0239B000A9AA8781A430A92E91CC8
:103920000DE5C023F7E75D46BB464F46ABE6C04614
:10393000692700104346012B00D8D1E0631E4344A1
:10394000B9461D005F46A2468B4622004B46013415
:1039500039002020B047AC42F7D15D46BB464F4608
:10396000A14654460B9B4A46187859463B004444AE
:10397000B04714E60C9BA146984500D887E644441E
:10398000E41A2B00B84625005F464C4699462200B3
:103990004346013439002020B047AC42F7D12C0017
:1039A000BB464D46474672E60C98804500D81CE25F
:1039B00043461A19131A99462B004D46B9465F46DD
:1039C0009B460C9122004B46013439002020B04721
:1039D000AC42F7D143460C9901330C930B785D460A
:1039E0009C46BB464F466046002800D02AE64EE67D
:1039F00007220B9B07339343013294469C44624653
:103A00000B920CCBD90F0A91110019435FD0D91733
:103A10001191109151400E91119959400F910E98AA
:103A20000F99109A119B801A99410E900F9110AA2C
:103A30000023944642469946129252461F336344ED
:103A4000B046AA464E461494B9460E9C0F9D1F00E0
:103A5000139201E0202E10D0200029000A2200231A
:103A600000F0E8FA013630322B00BA550D00220082
:103A70000400002BEED1092AECD8129B4F46B14628
:103A800046469846139B0E940F9555469A46149CAD
:103A90000C9B069343460593534604930A230393D2
:103AA0000A9B02934B46019318AB220000935946A0
:103AB0003B003000FEF7A2FE0400FFF7F0FB0B9B7B
:103AC0001B781A0067E610239A430C9240E6002305
:103AD00099460028DCD1002200230E920F93A6E71E
:103AE0000B9B2200187859463B00B0474C4656E5E0
:103AF0000A9880230200DB001A401100184200D10E
:103B00005FE102000D239A430B3B10000A93A8E6E5
:103B10000A9880230200DB001A40110002001842BC
:103B200000D166E10D2320209A43033310430A930A
:103B300097E66123820600D54123DBB20A3B0B9353
:103B4000434610A91F228C46129353466244AA464C
:103B5000149415974C468046B14617000A9E089D5E
:103B6000139308E03033DBB201343B55B5420ED33A
:103B7000202C0CD005003100280000F019FACBB23F
:103B80000929EFD90B9A94466344DBB2ECE7129B08
:103B900040469846139B4E465546A1469A46149C6D
:103BA000159F81E66F2800D037E10A990C230A009F
:103BB0009A43802310000A00DB001A4011000A9A81
:103BC0001A4200D021E108230A934AE60B9AFA3BF5
:103BD000FF3B07329A4301339C46944463460B9360
:103BE000136852680893134312921A1E05D10023DA
:103BF000103299469043002941D16122810600D5B7
:103C00004122D2B20A3A0C924246002310A91392E2
:103C100052468C46994614921F330A9A6344AA4628
:103C2000159417964C469046B946089E1F00129D63
:103C300016900AE03032D2B2002301343A55AB423A
:103C400011D0202C11D006000D0042460023300078
:103C5000290000F0EFF9D2B2092AEBD90C9B9C465F
:103C60006244D2B2E8E7B045EBD9139B554698467B
:103C7000149B4F469A46A1461698179E159C43469C
:103C80000593534604930A9B06900393002308E789
:103C9000002800D0B0E584E50B9B1B68DA0F11000B
:103CA000002B00D194E0DA179818504010AA9146E2
:103CB00042461F23129252464B44A046AA461497EE
:103CC0000400B14665461F000B91139201E0202DC0
:103CD0000FD020000A2100F06BF901357E19303138
:103CE000317020000A2100F063F926000400092E3B
:103CF000EDD8129B444698460B9BAC461900139B8B
:103D000055464E469A46149F0C9B02910693434695
:103D10000593534604930A230393634677E50B9B6D
:103D20001B680893002B03D110339843002937D127
:103D30006123820600D54123DBB20A3B0B93434645
:103D400010A989461F22129353464A44AA46B146F7
:103D500014941597644680461700089D0A9E139395
:103D600008E03033DBB201343B55B5420ED3202C92
:103D70000CD005003100280000F01AF9CBB2092957
:103D8000EFD90B9A94466344DBB2ECE7129B4046B2
:103D90009846139B55464E469A46A446159F149C3A
:103DA00043460593534604930A9B069003930023CE
:103DB0000293634682E5030613D50B9B1B88089389
:103DC00068E502000C239A430A3B10000A9348E579
:103DD000002899D16AE70B9B1B68D9175A184A40EB
:103DE000D9E40B9B1B68089354E5030001330C9343
:103DF000F9E520230A9A1A430A920C230A9A002111
:103E00009A43043310000A932BE50A9B0C93082372
:103E10000A930D230C98984323E510230A9A9A439A
:103E20000C9269280AD10A9980230A00DB001A4003
:103E300010000A00194200D18AE486E40A991C2382
:103E40000A009A43802310000A00DB001A40110088
:103E50000A9A1A4202D10A230A9302E50A230A9314
:103E6000D7E7C0460EB4012230B584B007AC08CC09
:103E7000064D01000094280052420394FFF7E6F932
:103E800004B030BC08BC03B01847C046612700101E
:103E900000B585B0039101210290009303481300FF
:103EA0004A4202A9FFF7D2F905B000BD152A001059
:103EB00010B5094A0300146884B0002C08D0012210
:103EC00000910648524203A9A047012004B010BD4A
:103ED00001F01AFE0020F9E7B0180120052A0010B1
:103EE00001480421014B1847301200201D3F0010EB
:103EF000014B5B681847000030120020142310B5F6
:103F00000100188804331B88984710BD162310B58C
:103F10000100188802331B88984710BDF8B5474642
:103F2000CE4680B50F1E19D01423994604330400E1
:103F30000025012698464B461888434621681B8871
:103F4000984701C4431E9841013540420640AF42A4
:103F5000F1D13000C0BCB946B046F8BD0126F8E743
:103F6000124A936F9B0815D29066D166002905D03E
:103F7000FFE7FFE7FFE7516F106F704704B580213F
:103F80000906C2175140002800D0C8431CF08CF924
:103F9000002104BDF0B5146E556E576F166FFFF714
:103FA000E3FF1466556657671667F0BD000000D042
:103FB000114A936F9B0813D210665166002905D0F1
:103FC000FFE7FFE7FFE7516F106F704704B5002868
:103FD00001D00020C0431CF067F9002104BDC04699
:103FE000F0B5146E556E576F166FFFF7E5FF146648
:103FF000556657671667F0BD000000D094464E4ADC
:10400000926F9208624601D230E0C046F0B54A4E47
:10401000B56F6D08FCD3346E756E776F366F00F038
:1040200025F89446444A14665566576716676246F3
:10403000F0BDC0469446404A926F9208624601D253
:1040400058E0C046F0B53C4EB56F6D08FCD3346EF9
:10405000756E776F366F00F04DF89446364A1466E9
:104060005566576716676246F0BDC046002B24DBD5
:1040700011D000293EDA00B5C943404200D10131D8
:1040800000F038F8C943404200D10131DB435242CD
:1040900000D1013300BD002AEBD1002801D1002955
:1040A00005D00020C90FC90701D1C043410800B5A0
:1040B0001CF0CAF80022002300BD00B500290ADB6D
:1040C000DB43524200D1013300F014F8C9434042AF
:1040D00000D1013100BDC943404200D10131DB4371
:1040E000524200D1013300F005F8DB43524200D1C7
:1040F000013300BD002923D1002B18D1002A0CD098
:10410000BC460D4F38667A6600210023FFE7FFE7C3
:10411000FFE77A6F386F67467047002801D007487D
:10412000010000B51CF090F80022002300BD020041
:104130000B00002000217047000000D0FFFFFFFFB0
:10414000002B00D0BFE0130C28D1002AE7D080B4A8
:10415000114F39667A66FFE7FFE730B4040C7B6FD6
:10416000396F1B0423433B667A66FFE7FFE7FFE7EF
:10417000C04684B27B6F3D6F1B0423433B667A6667
:10418000FFE7FFE7C04600232C042D0C7A6F386F41
:1041900000196941B0BC7047000000D0F0B59446EA
:1041A0000025140E01D112020835140F01D112019D
:1041B0000435940F01D192000235D40F01D1520081
:1041C0000135D40B0134254F7C66254C3C660E0C22
:1041D00093B2FFE7FFE7FFE73C6F6643360C7703D8
:1041E000BE467343DF0B5B04C01AB941130C734323
:1041F000DB18C91ACE086643360CB64493B2734333
:104200001F0F1B01C01AB941130C73431F0B1B0571
:10421000C01AB941860D8F023E436643360C092D04
:1042200024DB520A7243801A7703460A6643360C2F
:1042300016235B1BDE40DF40BF1964466643821BCA
:104240007046043506330100D940A840C01900D398
:104250000131A24206D20023F0BD0000000000D0D0
:10426000FFFFFFFF121B0130F3D3F1E709277F1B8C
:10427000FE406446A2B27243801A00D20139220C79
:104280007243130C1204821A99410B0070460435D4
:1042900013370100F940A840801900D30131002BE9
:1042A00002D1A2420AD2F0BD013000D30131121B6B
:1042B000FAD2013BF8D1A24200D2F0BD013000D3C6
:1042C0000131121BF7E7F0B51C0C00D080E00CB4F4
:1042D00000251C0A04D11B02160E334312020835B6
:1042E0001C0B04D11B01160F3343120104359C0B28
:1042F00004D19B00960F334392000235DC0B02D1B0
:1043000092185B4101351C00971864410134464FF7
:104310007C66464C3C660E0CFFE7FFE7FFE7C046B5
:104320003C6F6643360C7703BE4697B27743C01B9B
:1043300000D20139C01B00D201399FB27743C91B9B
:10434000C91B170C77437E04FF0B801BB941CE08B5
:104350006643360C0C2D33DBB644120B1F053A4373
:104360001B0B97B27743C01B00D201399FB2774332
:10437000C91B170C77433E043F0C801BB941860DC7
:104380008F023E43664329277F1BFE400C3D774644
:10439000AF40BF1930BCA2B2ABB272437343801AB4
:1043A0009941220C7243130C1204801A99410200A5
:1043B0000B000137001BA941F9D2781E0021F0BD86
:1043C0000C277F1BFE4077467F0BAF40FF19E0E7CD
:1043D00000245D1C07D0144F7D663966FFE7FFE7B8
:1043E000FFE7FFE73C6F95B29EB265436643401B13
:1043F000B141150C1E0C6543664336042F0C3E4339
:104400002D04401BB141994204D202000B00200050
:104410000021F0BD01D19042F7D3801A99410134B7
:104420009942F2D3F6E70000000000D0FFFFFFFF43
:1044300048404140484018B41B4B5B68FC46019320
:1044400008BD04DFC748001018B4174B1B68FC46B2
:10445000019308BD00DFD14800109446134A926FC3
:10446000920809D2624618B40F4BDB68FC460193F0
:1044700008BD0CDF894B00100C4AF0B5146E556E68
:10448000576F166F6246FFF7EEFF084A14665566CF
:1044900057671667F0BD18B4034B9B68FC46019341
:1044A00008BD08DF2D4A001048190020000000D088
:1044B000FFB550404240504059404B40594000E009
:1044C000FFB5154F4C00640D03D0BC4204D10C0362
:1044D00014D80020090D09055C00640D03D0BC420E
:1044E00004D11C030AD800221B0D1B0501264B40DA
:1044F00009D44B4003D58B4200D18242FFBD994283
:10450000FCD19042FFBD0B43DB1803431343F5D0AE
:10451000C9434918FFBD0000FF07000000B5FFF7C1
:10452000CFFF01D0002000BD012000BD00B5FFF786
:10453000C7FF804100BDC04600B5FFF7C1FF01D9EC
:10454000002000BD012000BD00B5FFF7B1FF01D97B
:10455000002000BD012000BD00B5FFF7A9FF80418C
:1045600000BD012040054A00121804D85A00121854
:1045700001D80020704701207047002070470000DC
:104580000021002805D17047C1174840401AFAD0D1
:10459000C90713B5064B1B6898470CBC441CA240C6
:1045A0001005120B0349091B09051943114310BDDE
:1045B000E81801201F04000010B54C00620D802394
:1045C000D218DB00D21A5B057E2A10DD9E3A13DA80
:1045D000CC170903490819435242D1406400013401
:1045E0001532202A05DAD0400843604310BD002070
:1045F00010BD0846604310BDC80FC018013810BD7B
:1046000018B4044B5B6AFC46019308BD24DF394DA6
:10461000001000004819002018B4044BDB6DFC4664
:10462000019308BD5CDF454E0010000048190020D2
:10463000C94211D300B549004908002200F018F81A
:10464000002904D4002240428A41114600BD802145
:104650000906002000BD000018B4044BDB6EFC46C8
:10466000019308BD6CDF474D001000004819002081
:1046700018B4044B9B6FFC46019308BD78DF634D73
:10468000001000004819002018B4044BDB6FFC46F2
:10469000019308BD7CDFD14D0010000048190020B7
:1046A00018B4044BDB6CFC46019308BD4CDF7D4F16
:1046B000001000004819002018B4044B1B6DFC4684
:1046C000019308BD50DF1950001000004819002068
:1046D000132370B51D78012D15D010DD1D48FFF78F
:1046E00015FC1D4C01008022200001F035F9022D3F
:1046F0002DD01A48FFF702FC194B186070BD194BFA
:10470000154CA364F5E7174B134C23606360A3605B
:10471000E36023616361A361E36123626362A36277
:10472000E36223636363A363E36323646364A36457
:10473000E36423656365A365E36523666366A36637
:10474000E36623676367A367E367A364D1E7054B69
:10475000A364CEE753440000481900204C33000006
:10476000E818012095480010244A4B0094465B0D40
:104770006344F0B504000D005A1C21DB5A1C35D0EF
:10478000342B1CDA3326F61A3700203F1CD40121C3
:10479000B9400B000121B1400A0012196B41002FF2
:1047A0001EDB0224BC4021000224B440200016007D
:1047B000002544428D4126402B4030001900F0BDB9
:1047C000CB0F0020D907FAE720210120891BC84020
:1047D0000121B14003000A0012196B41002FE0DAF9
:1047E00020240225A41BE5402900DDE7CB0F044A65
:1047F000DB071A4300201100E1E7C04601FCFFFF80
:104800000000F03FF0B5C6460B000D004900020065
:10481000040000B5490D2FD01C48091826D43426B1
:10482000711A8846464610001900002E1BDD4746C7
:10483000203F25D40126BE40310001274646B7401F
:104840003800002B06DA01246442E517A4185D4104
:1048500024184D41002342428B4126002C00164073
:104860001C403000210080BCB846F0BD0020002173
:10487000002BF8DA0649F6E7DB0F0020D907F2E74C
:104880002027BF1B0126FE403100D6E701FCFFFFB9
:104890000000F0BF07B5604601880A0A0230DF2A2F
:1048A000FAD1C9B2820804D30288408800041043B8
:1048B00000E00068014A5050039007BD48190020ED
:1048C0000FB403BC0CBCF0B50124E407634000E066
:1048D000F0B50C0DCF0F661E3605891B640503D39A
:1048E000C943404200D30131640D03D0661CF60A6F
:1048F00007D0E41B00207F00791C89078912803CC7
:1049000024031D0DDF0F6E1E36059B1B6D0503D3A3
:10491000DB43524200D301336D0D03D06E1CF60A07
:1049200007D0ED1B00227F007B1C9B079B12803D64
:104930002D032F1B661B58D4A446202E46DA2037A1
:104940001400BC401D00BD40F24033412A43801892
:104950005941CB0F05D0C943C043002264425041A6
:10496000514162464D0D28D10D0D07D100281FD0B1
:10497000241940414941013A0D0DF9D0640006D394
:10498000013000D30131002C01D140084000013A30
:104990000BD4941CE40A04D112051144DB0719441A
:1049A000F0BDD907204B194300E0D9070020F0BD26
:1049B0000029DDD1002CDBD1F0BD0132C607400853
:1049C000CD0728434908002EE1D0D9E73C2E29DA4B
:1049D000203E40371400BC4000D00124F240144374
:1049E0001A00BB401C43D317ACE7AC46202F08DAB3
:1049F00020360400B4400D00B540F840394128434A
:104A0000A5E73C2F0CDA203F40360400B44000D02C
:104A10000124F84004430800B1400C43C117EAE701
:104A200010001900002494E70000F07FF0B50C0D91
:104A3000661E3605891BE60A6405640D02D0651CF6
:104A4000ED0A04D0002001210905803C2403A4467E
:104A50001C0D671E3F05DB1BE70A6405640D02D0D1
:104A6000651CED0A04D0002201231B05803C2403B1
:104A70007740644497B484B296B27443070C7E4383
:104A8000150C6F4380B26843361802D3012000042E
:104A90003F183004350C00197D41844688B29AB223
:104AA00050430C0C62431F0C7C438EB27E43921920
:104AB00002D301263604A4191604170C36186741D0
:104AC00001BC81B29AB25143040C62431B0C5C439B
:104AD00080B25843121802D3012000042418100495
:104AE000130C401863412D185E410020474106BC5D
:104AF00088B293B258430C0C6343120C544389B2EE
:104B000051435B1802D301210904641819041A0CDB
:104B1000091862416D1856410020474118BCF9023E
:104B2000720D1143F0026A0D1043ED020A0D03D11C
:104B30006D1940414941013B124E9B1B7600B34227
:104B40000ED26D0007D30130002671416646354311
:104B500001D1400840001B05C918E4072144F0BDFD
:104B60000BDA013306D1013004D101314F0D01D0F0
:104B70004908F2E7E1070020F0BD013631050020C9
:104B8000EBE70000FF030000F0B51C0D671E3F05BA
:104B9000DB1BE70A6405640D02D0661CF60A04D02C
:104BA000002201231B05803C2403D0252D0600266E
:104BB000F6432E661E096E66CE0FF619B4464900FE
:104BC0004F0D02D07E1CF60A03D000200021403F8A
:104BD0003F033E1BB600B444013F7F05C91B490893
:104BE0002E6F013676089C02950D25437543ED1313
:104BF0007543AD1301356D10F603761B0CB4CC0272
:104C0000450D2C43A2B2B3B25A43270C7B43350C5B
:104C10006F43A4B26C431B1902D3012424043F192F
:104C20001C041D0CA4187D4124196D41009A91B2F9
:104C3000ACB26143170C7C432B0C5F4392B25A43D6
:104C4000A41802D301221204BF182204230C521804
:104C50007B41019C6C431B19520ED9010A4344014C
:104C6000A01A81B2B2B2514303145A43360C7343B3
:104C700087B27743D617D21900277E4136049B1995
:104C80001704160C7F185E417316ED18F301002609
:104C900080337541A90F06D16400690AE8055B0AF3
:104CA000184309D22FE00422944480337541A90AA5
:104CB000A8059B0A184326D3404149412404009A81
:104CC000019B0D005543641B4343E41A95B286B221
:104CD0007543170C7E43030C5F4392B25A43B618D8
:104CE00002D301221204BF183204330C52197B4143
:104CF00052429C41002C02D4002201305141400814
:104D0000CA071043490802B06246D7079210084B01
:104D1000D218084B9A4203D212058918C919F0BD5E
:104D20000020002A01DC3900F0BD01331905F5E748
:104D3000FD030000FE070000002200B5203200F055
:104D400010F8080000BD002200B500F00CF8CA17EA
:104D50009A4200D100BDD8430121C907414000BD9E
:104D600000220B150AD410B5944600F0A7F81414CD
:104D7000013400DA0021CB17144C20470020002119
:104D800070476244343A0CD40C2A07DA040091408C
:104D9000904052422032D440214310BDD843D943E1
:104DA00010BD203207D40C469440524220321141AB
:104DB000D040204310BD0800C917203203D452420E
:104DC0002032104110BD1800190010BD834D001095
:104DD0004A00520D144BD21A13DDFF2A1EDAD205F7
:104DE000CB0FDB071A43C300400F0903490A0843EE
:104DF00010435B0001D301D0013070474308FBD260
:104E0000704702D0C80FC00770470A03121301325F
:104E1000F8D1420F072AF5D1012200E0FF22C80F86
:104E200000028018C00570478003000000210A00BE
:104E3000002104E000210A00C11704E00022002341
:104E400006E0C0460022CB1758405940C01A99418D
:104E500030B5184CA21A002903D1010010D000204F
:104E6000203A4C1512D104D2013A001849414C0D98
:104E7000FAD3114CA24204D212058918DB07C918D3
:104E800030BDD243520D00200021F5E703D4013A92
:104E900000184941FBD50B324405C00A4D05284393
:104EA000C90A640003D0002460416141E1E7E0D316
:104EB0004408F8E732040000FE0700000A0DCC0F9A
:104EC000531E1B05C91A520503D3C943404200D3E0
:104ED0000131520D03D0531CDB0A07D0121B0020F6
:104EE0006400611C89078912803A1203014BD21AAF
:104EF00070470000FF030000023225D40C2A1CDAA0
:104F00001125AD1A0B002B41083207350600EE4083
:104F1000904091403143F0CC63431A1500235A412D
:104F2000554356435743BF02F4127605761967413D
:104F3000ED177F19801BB94170470C220020C9175B
:104F4000490001310905DBE70902030E194300029C
:104F50005342203208D40C0019419440D8402043D9
:104F600000225041514170470800C917203B2032B0
:104F7000F1D500200021002270470000F0B5FFF7B6
:104F80009DFF54A4FFF7B8FF002904DA204C214DFF
:104F900000196941013A04B4012752A600220123F5
:104FA0009B0730CEB446001BA9410BD47E4220366D
:104FB0001D003D411C00B4401600FE4034436241D8
:104FC0006B4101E00019694166460137212FE8D1A4
:104FD00085B29EB2754307147E43190C4F4384B2C9
:104FE0004C43F11736190024614109047F18340439
:104FF000310C64197941A40F880020438917801867
:10500000594104BC52423E32FFF71DFFF0BD000083
:105010006BDE73F4FD855C2CF0B54F0050D27F152C
:105020004ED001374FD0FFF749FF04B44902C20DFB
:105030001143400201272BA6B446002200237E42E2
:1050400020360D003D410C00B4400600FE403443C4
:1050500044414D41AE0F05D120002900664630CEB7
:10506000121BAB410824A4440137212FE7D189004A
:10507000891012184B4180BC17A413CC0137784318
:1050800079437C434F05C912CD17C0196941A70266
:10509000A415CD17C9196C41DD17801859416C4111
:1050A0003E22CD17AC4208D000090E073043090953
:1050B000260731432411043AF3E7FFF7C4FEF0BD9D
:1050C00002490020F0BD02490020F0BD0000F0FFC1
:1050D0000000F07FAAB800006BDE1300A3EF0F0002
:1050E00021170B00F34B98BFEC23F319D6104DCDCD
:1050F000E3FB470E7AB9BC8ADBC18907CC542C028A
:105100001846E103053083E7B029F8011E1FE08748
:105110004505FE00249E41ACA9807F0081176245B1
:1051200015E03F00E610ABA902F81F00885845556E
:1051300000FE0F00C4AAA90A80FF070056455501CA
:10514000E0FF0300ABA92A00F8FF01004555050068
:10515000FEFF0000AAAA0080FF7F0000551500E0B6
:10516000FF3F0000AB0200F8FF1F0000550000FEEB
:10517000FF0F00000B0080FFFF0700000100E0FFB1
:10518000FF0300000000F8FFFF0100000000FEFF29
:10519000FF0000000080FFFF7F00000000E0FFFF35
:1051A0003F00000000F8FFFF1F00000000FEFFFFAF
:1051B0000F00000080FFFFFF07000000E0FFFFFF7F
:1051C00003000000F8FFFFFF01000000FEFFFFFFEB
:1051D000000000000000008000000000000000400F
:1051E0000000000051434343C9188C46110C83B2A0
:1051F0004B4310B4040C614392B280B250436243FB
:105200001C041B0C001910BC59411304120CC018CB
:1052100051416144704700004840414048400E4BB6
:105220005B6818470C4B1B6818470C4A936F9B0828
:1052300002D2094BDB681847F0B5146E556E576FF4
:10524000166FFFF7F6FF054A14665566576716672F
:10525000F0BD014B9B681847481A0020000000D0A1
:1052600007B548404140484001E0C04607B542000C
:10527000120E03D0FF2A03D1420218D8C00DC00578
:105280004A00120E03D0FF2A03D14A020FD8C90DDB
:10529000C9050122414005D4414001D5814207BDE5
:1052A000884207BD0143491801D0C043001807BD1B
:1052B00000B5FFF7DBFF01D0002000BD012000BDDD
:1052C00000B5FFF7D3FF804100BDC04600B5FFF732
:1052D000CDFF01D9002000BD012000BD00B5FFF7C2
:1052E000BFFF01D9002000BD012000BD00B5FFF7C0
:1052F000B7FF804100BD491A002807D10846704712
:10530000C10FC90700D54042002817D0F44603B4A6
:105310000B4B1B68984706BC81409E384042803149
:1053200007D20B0607D04900490AC00510430843BD
:1053300060470130F8E7490A8902F5E77047000045
:10534000E818012041000A0E80231B067E2A0BDD8F
:105350009E3A0BDAC1174002400818435242D0402F
:10536000490001314843704700207047C00FC01802
:1053700001387047C0420DD300B5400040080021FD
:1053800000F012F8002801D4404200BD8020000641
:1053900000BD0000034BDB69FC4618471CDFA55825
:1053A00000100000481A0020014B5B6A18470000FB
:1053B000481A0020034BDB6FFC4618477CDFBD58C2
:1053C00000100000481A0020C11502D4054B9B694B
:1053D0001847C843FF2801D1C0077047C817C00548
:1053E00070470000481A0020014BDB6C1847000092
:1053F000481A0020014B1B6D18470000481A002076
:10540000132310B512481C78FEF780FD0100012C13
:105410000AD003DD80220F4800F09EFA0E48FEF706
:105420006DFD0E4B186010BD0A4C5422200000F098
:1054300093FA0B4B6365A365E36523666366A36616
:10544000E36623676367A367E3672362E361E5E7D6
:1054500053460000481A00204C330000E818012091
:1054600079580010F8B5CE4647460C0080B5051CAB
:1054700001294AD0CE0F76187610012E3DD0032791
:10548000CA1717407F18BF10012F2ED007231340D3
:105490005B18DB109846012B22D00F2313405B18BA
:1054A0001B119946012B12D00B00203B1F2B05D955
:1054B0000021FFF7D7FF011CFFF7CBFE011CFFF710
:1054C000C8FE4B46DB0702D5291CFFF7C2FE011CB4
:1054D000FFF7BFFE4346DB0702D5291CFFF7B9FEE5
:1054E000011CFFF7B6FEFF0713D4011CFFF7B1FE46
:1054F000F60702D5291CFFF7ACFE011CFFF7A9FE39
:10550000E40702D5291CFFF7A4FEC0BCB946B0468B
:10551000F8BD291CFFF79DFEE7E7C046F8B504007B
:10552000061C0D1C002817DA4B001B0E7F3B0ED407
:105530001722D31A0BD401210A009A40013A2A42B9
:1055400005D1172B27D02A00DA40114223D180231E
:105550001B069C466444261C281CFFF7F3FEE30D43
:1055600007000100002B21D0FF2B1FD064021DD1AA
:10557000264A904245DBFF2841DC7F3B5F433B00EE
:105580007F330020002B10DDFE2B3CDCFE23FF05CB
:105590009B05F81809E080231B06E018291CFFF77B
:1055A000BDFF80231B069C466044F8BD002F10D031
:1055B0003B002033402B0FD8002F06DAFE20311C91
:1055C0008005FFF732FE7942061C301CFFF74AFFC8
:1055D000EBE7FE208005E8E7301CFFF7EBFEFFF766
:1055E0006BF806000F00281CFFF7E4FE32003B00BA
:1055F000FEF751FFFFF754F8FFF746F8D5E7FF270E
:10560000BBE71700B9E7FF20C005CEE700FFFFFFAB
:1056100043001B0E7F3B5A1C0DDB5A1C0ED0172B70
:1056200008DA1622D21A0123934018180223934055
:105630005B4218407047C00FC007FBE7C00FC307AD
:10564000FE2080051843F5E7420010B5031C040056
:10565000120E11D07F3A0AD417218A1A002A05DDCA
:1056600001209040002B0ADA4042204010BD002863
:1056700008DA80200006F9E7C30FD807F6E7441ED2
:10568000E418F1E7FE208005F0E7C046430070B55E
:105690001B0E822B04D9002819DBFE20800515E0A3
:1056A000002B02D080231B04C018FFF79DFEFE21B3
:1056B0008905041CFFF7B3FDFE21051C8905201C8C
:1056C000FFF7B0FD011C281CFFF7AFFD70BD0148BE
:1056D000FCE7C046000080BFF8B5CE4647460D1C2B
:1056E000FE2180B58905041CFFF7E2FD261C002879
:1056F0002BD1EB0DFF2798463B40994643461F426E
:1057000028D05A49201CFFF7D3FD002825D04B464E
:10571000FF2B1FD04346FF2B3FD0554B984536D02B
:10572000524A49467F3900D57CE017235B1A002B8B
:1057300006DD012199400B00013B2B4200D071E0B6
:10574000291C201CFFF7EAFE061C301CC0BCB94611
:10575000B046F8BDFE26B605F7E73900E30D220096
:1057600019401F4215D14B467F3B002D18DB002B03
:105770000DDB1722D31A0AD401210A009A40013AFC
:105780002A4204D1172BE0D0DD402942DDD100268A
:10579000DBE7FF2B1BD1002DF9DBFF26F605D4E755
:1057A0004A467E2AF9D91722D31AF6D401210A00D3
:1057B0009A40013A2A42F0D1172B02D0DD4029420B
:1057C000EBD0FF26E40FE407F6052643BDE72848A3
:1057D00083423DD14B467F3B002D10DB002BDCDBB1
:1057E0001722D31AD9D4163A9A40013A2A42D4D170
:1057F000172B02D0DD40ED07CFD51E4EA5E74A4658
:105800007E2AC4D91722D31AC1D4163A9A40013A33
:105810002A42BCD1172B02D0DD40ED07B7D5802638
:10582000360692E7002AB8DB201CFFF7C3FDFEF71F
:1058300043FF06000F00281CFFF7BCFD32003B00B1
:10584000FEF729FEFEF72CFFFEF71EFF061C7CE785
:105850004346FF2B05D0804500D062E77E2996D8CD
:105860009BE77E2999D800266FE7C046000080BFDD
:10587000FF010000000080FF07B5604601880A0AAA
:105880000230DF2AFAD1C9B2820804D302884088E4
:105890000004104300E00068014A5050039007BD27
:1058A000481A00200021C2158032803201D0024AFD
:1058B0001047002070470000CD2A0000C30FDB070F
:1058C00041000A0E07D0FF2A08D00909054A8918A5
:1058D0001943400770471900002070470249C91852
:1058E000FAE70000000000380000F07F10B5040067
:1058F00018F0A0FD002804D0034B04199C4200D8E6
:1059000010BD0248FCF73EFD0000042080E40210B8
:1059100010B50C0019F084F8002804D0034B0419CA
:105920009C4200D810BD0248FCF72CFD000004206A
:1059300080E4021010B518F087FD10BD0148042165
:10594000014B1847401200201D3F0010014B1B68FF
:105950001847000040120020014B5B681847000008
:105960004012002010B5FFF7E5FF10BDF0B5C646A8
:1059700000B5437C07000D001600002B38D0002A2C
:105980002EDD00216A1E90466A5C037C4C1C0020C0
:105990000A2A0CD0A64216D043461B5D21000D3BBF
:1059A0005A4253416A5CDBB24C1C0A2AF2D1002BEA
:1059B000F0D1814217DC022110483B689847A6428B
:1059C00007D02000E8E7864203DD311A3B6828183B
:1059D0009847AD19013D2B780D3B5A4253413B741A
:1059E00080BCB846F0BD091A3B6828189847E2E722
:1059F0000368110028009847F2E7C046F8E4021057
:105A0000F0B5C6460B6806000C0000B5802B06D02A
:105A10005A1C2260E418267180BCB846F0BD0F4BBA
:105A20001D68002D16D00B1D98460D4F02E0ED6845
:105A3000002D0FD02B68002BF9D03B68002B01D034
:105A4000AB42F4D1280041462268FFF78FFFED6892
:105A5000002DEFD101220023DBE7C046A014012076
:105A6000A8140120F0B5CE46474680B583B06B46FA
:105A7000DE1CD02330701B061C68204B804601A919
:105A8000180099461AF020FC071E20D01C4B1C68F9
:105A9000002C29D01B4D02E0E468002C0FD02368B5
:105AA000002BF9D02B68002B01D0A342F4D12000A9
:105AB00001223100FFF75AFFE468002CEFD1002FDC
:105AC00012D1404603B0C0BCB946B046F0BD019B00
:105AD00064B29C420CD048461AF04EFC084B1C683D
