:020000041000EA
:1000000000B5324B212058609868022188439860DF
:10001000D860186158612E4B002199600221596106
:100020000121F02299502B49196001219960352056
:1000300000F044F80222904214D00621196600F024
:1000400034F8196E01211966002018661A6600F04E
:100050002CF8196E196E196E052000F02FF8012189
:100060000842F9D1002199601B49196000215960AB
:100070001A491B48016001219960EB211966A021F2
:10008000196600F012F800219960164914480160C1
:100090000121996001BC002800D000471248134993
:1000A000086003C880F30888084703B5996A0420EC
:1000B0000142FBD001200142F8D103BD02B5186610
:1000C0001866FFF7F2FF186E186E02BD00000240BE
:1000D000000000180000070000035F00212200005C
:1000E000F4000018222000A00001001008ED00E03C
:1000F00000000000000000000000000074B24E7A12
:1001000000200420F7010010C3010010C5010010F9
:10011000C1010010C1010010C1010010C101001097
:10012000C1010010C1010010C1010010C701001081
:10013000C1010010C1010010C9010010CB01001065
:10014000CD010010CD010010CD010010CD01001037
:10015000CD010010CD010010CD010010CD01001027
:10016000CD010010CD010010CD010010CD01001017
:10017000CD010010CD010010CD010010CD01001007
:10018000CD010010CD010010CD010010CD010010F7
:10019000CD010010CD010010CD010010CD010010E7
:1001A000CD010010CD010010CD010010CD010010D7
:1001B000CD010010CD010010CD010010CD010010C7
:1001C00000BE00BE00BE00BE00BE00BE00F04BF888
:1001D000103800BEF2EB8871585900107C5900109D
:1001E0003402001090A31AE700202149086006C8D5
:1001F00081F3088810471F48006800282FD10DA4FC
:100200000ECC002902D000F012F8F9E71A491B4A77
:10021000002000E001C19142FCD1194988471949E9
:1002200088471949884700BEFDE701C901C29A42C3
:10023000FBD370477C590010C0000020E00900206B
:100240009C62001000000420000004209C6200104A
:1002500000100420001004200000000070470B482C
:1002600001F046FC0047EFF30580C0B27047000084
:1002700008ED00E0000000D0E0090020381900205F
:10028000A1150010E5020010C1160010575600001D
:1002900006005250ABB360538C570010060052500A
:1002A000861C030274550010060052505422A29D71
:1002B0009C57001005005250DE65F4689C620010E7
:1002C000F8B5C046044B10B5002B03D003490448D1
:1002D00000E000BF10BDC04600000000E018002094
:1002E0005055001010B501F06DFE0D2000F0ECF837
:1002F000D024802324069B01A362002201210D202B
:1003000000F0D0F863689B0406D4094801F0F0FBC4
:10031000002103000800984700F066F804F000F898
:10032000044C02F0F9FB200001F0C0FDF9E7C046E3
:1003300055420000505500107047C0467047C046F7
:100340007047C0467047C0460020704710B51A007D
:1003500002AB002100201B7803F030FE10BDC04628
:1003600000487047EC56001000487047FC550010DC
:10037000004870479855001070B5002822D0042816
:1003800029D8164B8000C558280004F0DDFEC0B205
:10039000041C1F2814D8C026E4B2631CDBB25B0027
:1003A000B6001E43002808D000230D4AE95C013343
:1003B0001180D9B202328C42F8D80A48068070BD4A
:1003C0001F24E8E7C126054B02220548196801F001
:1003D000CBFCB600F1E70020F1E7C0467C0300202B
:1003E0008A14002088140020F0B5C64600B51E4CC3
:1003F00086B06421200004F0ADFA0321102000F043
:1004000039F80321112000F035F8F22302AA1B016C
:10041000138003AB98462323414600250B80134BE2
:1004200004AF3B80124B05AE33806B2102232000CA
:10043000009504F0B9FA424602236B212000009592
:1004400004F0B2FA3A00022319212000009504F0CA
:10045000ABFA0223320019212000009504F0A4FA1F
:1004600006B080BCB846F0BD7004002020570000E4
:1004700023180000094A10B59446402483006344C1
:100480001A68C00062408034144080225201134335
:100490001C60034B9C466044416010BD04C0014099
:1004A00000400140074B80009C4660440368C9003F
:1004B00092000A435A400C231A4080235B010343F5
:1004C0001A60704704C001400123D0228340120605
:1004D00093629361094A40219446830063441A68F9
:1004E000C0004A40803111408022520113431960FC
:1004F000034B9C46052360444360704704C00140A1
:100500000040014070B5EFF3108C72B60D4D2B68B2
:10051000002BFCD0BFF35F8F0724CB08C618C05C4C
:1005200001230C40A3401C000440034207D11843A0
:100530003070BFF35F8F2C608CF3108870BD10009B
:1005400001F0C0F82C0100D0F8B54746CE468846E9
:1005500080B5EFF3108C72B6214D2C68002CFCD0C6
:10056000BFF35F8F9A422CD8D4080727055D061980
:1005700001241740BC402C421FD007210127894687
:1005800009E0D408055D06194C4639001440A14025
:100590000C00294211D001329342F2D20120404294
:1005A000BFF35F8F00220E4B1A608CF31088002877
:1005B0000FDBC0BCB946B046F8BD2543100035700E
:1005C000EEE7BFF35F8F00232B608CF310880120D0
:1005D00040424346002BECD0089801F073F8C04627
:1005E0002C0100D0024B18688007C00F7047C0462E
:1005F00000C006400021044B044ABFF35F8F02C3D2
:100600009342FAD17047C046000100D0800100D06B
:10061000044A1078431CDBB2172B00D91023137047
:100620007047C0469003002010B5064B064C82B0C0
:100630000100009318221F232000FFF785FF02B05E
:1006400010BDC04600570010441400200123834011
:10065000002904D0034A1360034A13607047034A19
:100660001360FBE780E200E000E100E080E100E0F1
:10067000024B10309B688000C058704700ED00E0CE
:1006800070B50D00EFF3108672B60F4A1368002B99
:10069000FCD0BFF35F8F0D4B10309B6884001B595B
:1006A0000B4A934203D09D4201D001F023F8074B3F
:1006B0009B681D51BFF35F8FBFF35F8F0022024B1A
:1006C0001A6086F3108870BD240100D000ED00E0B0
:1006D000CD010010F0B5DE4657464E464546E0B522
:1006E0000C0083B0EFF3108A72B6604A1368002BD7
:1006F000FCD0BFF35F8F1022914681444A465C4B89
:1007000096009B689D595B4B98469D4205D0A5423B
:1007100016D0594FEB1B2F2B14D9554B9B689D516D
:10072000BFF35F8FBFF35F8F0022504B1A608AF3D5
:10073000108803B0F0BCBB46B246A946A046F0BD47
:100740001D00EAE7012383409B465A464B4B1B683A
:100750001A4000925A464A4B1A60BFF35F8FFFF768
:1007600082FD031E01901DD12A0001339A43906837
:10077000844208D171E04B005B189B00FB1898681D
:10078000A04245D01A00062151560029F3DA8442CE
:100790006AD0009B002B34D05A463A4B1A60374B34
:1007A0001A60BAE7814530D12A0001239A43906844
:1007B0008442E8D1062151561300002940DB4A004B
:1007C000501880003C188046A0689860E079D87185
:1007D00006202056987100282FDBA488F81A64059B
:1007E000241544440019E0240005400D2402204350
:1007F00098805318244A9B001078FB189871117048
:10080000C7E75A461E4B1A6087E700F073FFCBE735
:10081000062159560029D2DA0199002910D1FF3159
:1008200091711A49918018490A789A71184ADB1B0C
:100830005B415A43120D0A70ABE7BD200002D7E7B7
:10084000144A1549D21A083A5002400D01439980C2
:10085000124952080A43DA809BE7062151561300D9
:100860000029ACDA4546DEE71300D5E7240100D0C5
:1008700000ED00E0CD0100109403002000E100E055
:1008800080E100E080E200E03419002000BDFFFFBD
:10089000AAAA0000CE03002000F0FFFF00F8FFFF2F
:1008A000F8B5012504000543FFF7DDFCEFF3108CDC
:1008B00072B6214A1368002BFCD0BFF35F8F1F4E26
:1008C0002100B7681E4A1F4B891A49414B431B0D33
:1008D00059B28300F858A8421CD00623D3568B4245
:1008E0001CD01223D3568B4222D01E23D3568B42C8
:1008F00020D02A23D35603208B4210D0124B1A78D3
:100900001970A271BFF35F8F00220B4B1A608CF33A
:100910001088F8BDB2680D48D050EFE700204300C2
:100920001B189B00D218FF239371094B9380E5E7B6
:100930000120F4E70220F2E7240100D000ED00E0FE
:1009400094030020AAAA000034190020CD01001051
:1009500000BDFFFF054B064A1360064A1360536053
:100960009360D3601361536193617047808080808E
:1009700000E400E004E400E0024B9C46614489008E
:10098000016070474000003483680B4810B584460E
:10099000614462441201090159189B185C684A6855
:1009A0000120944201D802D00020C0B210BD1A68C4
:1009B0000B689A42F9D8F7E7FFFFFF0F0A4B196857
:1009C000EFF3108072B60A68002AFCD0BFF35F8F85
:1009D0001B68BFF35F8F00221A6080F3108840BF4E
:1009E000002000217047C04614190020F8B5574672
:1009F00045464E46DE46E0B598460CAB1C780DAB3E
:100A00001B78070091469A460568002C5AD1AC7BAA
:100A1000002C3BD0660029683619033E89194B78B3
:100A2000AB73002B00D1EB7300238B704B700B70FA
:100A30002B4BE218BB6812019B184A461A604246CB
:100A40005A600A9A9A600B9ADA6000238B704B7096
:100A50000B706B7B9B46002B27D022006B6859469E
:100A6000A86898475B465B005B442A68033B002804
:100A700012D058469619B070D118D35C002B00D014
:100A800073705B460C706B735C450FD0F0BCBB465B
:100A9000B246A946A046F8BDD3189C709119925D44
:100AA000002A00D05A705B460B706C734A4643466E
:100AB000387D00F0C5FA051E0AD10E9B002BE5D04B
:100AC0001D70E3E7660029683619033E8919AFE710
:100AD0005346002BF1D12100386800F0FBFCECE715
:100AE000FFFFFF0FF0B5DE4657464E464546002352
:100AF000E0B58DB00A936A4B8200D75800239B461D
:100B00000B9000F04DFA02000B007868EFF31089AB
:100B100072B64D4601680029FCD0A946BFF35F8F2D
:100B200039684E7B8C46002E2ED0BC685D49A246AB
:100B3000711809018A4451460868496804000D008B
:100B4000A41A9D41002D5EDD02000B000B9800F001
:100B500077FA002300229A46002308920993002383
:100B600098467B68BFF35F8F5A461A6089F31088F6
:100B70004346002B12D10028C3D10DB0F0BCBB46B8
:100B8000B246A946A046F0BD002300229A460023A3
:100B900008920993002300209846E2E70A9B5146F9
:100BA00018023043C047069007917A68EFF310852A
:100BB00072B654461368002BFCD0A246BFF35F8F79
:100BC0000699079A002A3BDB114302D03B69002BB0
:100BD00052D13B68D97B002905D01A6848004118DA
:100BE0005218033A5670DE73FA68013E935D013382
:100BF00093555B463B617B68BFF35F8F5A461A6033
:100C000085F310887DE7002D01D1002C9CD10021B7
:100C1000604600F0C7FB53465C681B680893099464
:100C200053469B6898465346DB689A46FB689B1977
:100C3000013B1B780A931B0203433B61002090E7B2
:100C40003B69002BC5D0089B099C5B1A944108980E
:100C500009991A002300A14219D899421BD00021FA
:100C600004910131039151460191414638000296A9
:100C70000091FFF7BBFEBCE700F092F9069A079BD4
:100C800012184B41994202D8E9D19042E7D901228A
:100C90005242D317E3E708999142E0D9F7E7C046FB
:100CA000F8180020FFFFFF0FF8B557464E4645469F
:100CB000DE46E0B53E4D824689466A68EFF310880D
:100CC00072B61368002BFCD0BFF35F8F2E68B47B25
:100CD000002C48D0670033683F19033FDB195A786E
:100CE000B273002A00D1F273324AA118AA6809012E
:100CF000521851461160494651602F4991600021B8
:100D0000D160997059701970737B9B46002B41D04C
:100D1000220073685946B06898475B465B005B44A5
:100D20003268033B00282CD05846D719B870D11828
:100D3000D35C002B00D07B705B460C7073735C45FA
:100D400029D00026EB681B19013B19786B68BFF3AB
:100D50005F8F00221A6088F310880020002E0AD1CD
:100D60000802204307E06B68BFF35F8F1C6088F3C5
:100D7000108801204042F0BCBB46B246A946A046BE
:100D8000F8BDD3189C70D119D25D002A00D05A70DA
:100D90005B460B70747352464B46287D00F050F949
:100DA000061ECED02100286800F094FBCAE7C0469A
:100DB000DC030020FFFFFF0FBD09001010B5124C2F
:100DC0006368002B04D00A211048FFF7D5FD10BD41
:100DD00023000F4A1021206800F0EAF9032000F0F8
:100DE000D3F8032000F09AF903200A4900F0E2F852
:100DF000FFF70EFC084B9C46032360442375074B0A
:100E000080006060DC60DEE7DC0300201419002055
:100E100089090010E50A001040000034F81800208D
:100E2000F8B5CE46474680B505000C00FFF73CFFFD
:100E3000031E11DC244A0020536AA34203D3926AA2
:100E40000130AA4203D3C0BCB946B046F8BD1B1B53
:100E50005A1E9341D8B2F6E720BF1C4E7168EFF3DB
:100E6000108772B60A68002AFCD0BFF35F8FDAB22F
:100E70009446FF2230681A40417B61450AD00168E0
:100E8000894651008846494690444144033989784F
:100E900000290FD0F1681B0A8A18013A1278DBB2D8
:100EA0009A420CD07368BFF35F8F00221A6087F3F9
:100EB0001088BFE732699342F4D13161F2E76146AD
:100EC00000F008FBEEE7C04600400540DC030020D0
:100ED000F0B5D6464F464646C0B5EFF305823F23F0
:100EE000134018001038EFF3108C72B620490A68CE
:100EF000002AFCD0BFF35F8F0122170087401D4CF2
:100F00001600A24667631C4C2578A0462C00C440FE
:100F10002640224215D05246566A184A8400A258EA
:100F2000964218D34246164BBD43E3581570BFF3A3
:100F30005F8F00220A608CF31088002B06D0984740
:100F400004E0BFF35F8F0E608CF31088E0BCBA46FC
:100F5000B146A846F0BD0B4A9B00904643441A6830
:100F60001A60BFF35F8F00230B608CF31088EDE7EE
:100F7000280100D00040054035190020201900202C
:100F800034130020D03F054010B5034B010018007A
:100F9000024AFFF7B7FA10BD331900201C570010A2
:100FA000034B596A0A00986A596A8A42FAD1704713
:100FB0000040054070B504000D00EFF3108672B6D6
:100FC0001A4A1368002BFCD0BFF35F8F002D1BD093
:100FD0002000FFF74DFB164981420AD02000FFF7A1
:100FE0004FFB01212000FFF731FB0123A340114AF1
:100FF0001360114BA400E550BFF35F8F00220B4B31
:101000001A6086F3108870BD0121A1400A4BA2002E
:10101000D5500A4B20001A788A4305491A70FFF709
:1010200059FB00212000FFF711FBE5E7280100D064
:10103000D10E00103860054034130020351900200F
:10104000F0B54F46D6464646C0B507002E4C616AFD
:101050000D00A66A616AA942FAD18B4208D805D070
:101060000120E0BCBA46B146A846F0BDB242F7D96D
:10107000EFF3108A72B6254801680029FCD0BFF34F
:101080005F8F0125BD4022491F4C8846097889465B
:101090002943C9B28C46414660460870391D890013
:1010A00065630A511B49B8004350216A0020294258
:1010B00019D0616A0800A66A616A8142FAD18B423E
:1010C00019D801D1B24216D8CC450BD00E4B1F22F5
:1010D0001D625D6301233A4093400F4A136043460B
:1010E0004A461A700120BFF35F8F0022074B1A6037
:1010F0008AF31088B5E70020BFF35F8F0022034B0F
:101100001A608AF31088ACE700400540280100D03F
:10111000351900202019002080E200E0EFF3108C48
:1011200072B60A490B68002BFCD0BFF35F8F012316
:101130008340074A0748136202789A430270BFF35C
:101140005F8F00230B608CF310887047280100D05C
:10115000004005403519002070B506000D00140050
:1011600000291DD0002A12D0736880689847620059
:101170006B0012195B193168033A033B002808D051
:101180008A189570C818CB5C002B0BD1047028000E
:1011900070BDCB189C7088188A5C002A05D1057038
:1011A0002000F5E753700470F1E75A700570F7E717
:1011B00010B583600023CCB24373013342600473E3
:1011C0008373C4730068421C012C05D90133DBB260
:1011D000137003329C42F9D1FF230B405A00D318FD
:1011E000C01800230338437010BDC04670B5050019
:1011F0000C1E07D0630001681B19033BCB185A78FB
:10120000002A01D1200070BD500080180338091851
:1012100000204E784870210058702800FFF79CFF8E
:10122000310004002800FFF7E1FF0600002C20D069
:101230000028E7D0320021006B68A8689847720048
:10124000630092191B192968033A033B002808D050
:101250008A189470C818CB5C002B00D053700670AD
:10126000D0E7CB189E7088188A5C002A00D05A708C
:1012700004703400C6E7C046F8B557464E464546AA
:10128000DE464C00E0B5641817000268033C050018
:10129000105D13190E009C46002852D0430098465A
:1012A0001B18033BD31859788A46002919D1002FFF
:1012B0000CD0EC7B002C50D063001B19D318033BDF
:1012C0005E70EE73434619180339531800229A7062
:1012D000002362465370F0BCBB46B246A946A04606
:1012E000F8BD49005144033952185178884600210D
:1012F000517089465970524601002800FFF72CFFB3
:1013000043468246002B07D05B0029684344033BD9
:10131000CB185A78002A2CD1514642462800FFF7B4
:101320001BFF0100002F1AD0A4462A68EF7B9444CB
:10133000002F04D07B00DB19D318033B5E70EE73E3
:1013400010E0002FC4D0E97B002910D04B005B18BF
:10135000D318033B5E70EE73BAE7EE73B6E7A446AC
:101360002A6894440029B3D04B009846AAE7EE734C
:10137000AEE750008018033809184878834648467D
:101380004870587041462800FFF7E6FE59468046EF
:101390002800FFF72BFF414602002800FFF7DCFE84
:1013A0008046B9E7F8B557464E464546DE46E0B5B5
:1013B000467B02687500AD19033D0F00515D53195E
:1013C00004009C46002953D04B0098465B18033B11
:1013D000D3185878824600281BD1002F0CD0E57B0B
:1013E000002D51D06B005B19D318033B5E70E67380
:1013F000434658180338131800229A700023624697
:10140000300053706173F0BCBB46B246A946A0469B
:10141000F8BD400050440338121850788046002030
:1014200050708146587052462000FFF795FE4346A3
:101430008246002B07D05B0021684344033BCB1856
:101440005A78002A2CD1514642462000FFF784FEEC
:101450000100002F1AD0AC462268E77B9444002F8D
:1014600004D07B00DB19D318033B5E70E67310E0F9
:10147000002FC3D0C07B002810D043001B18D31806
:10148000033B5E70E673B9E7E673B5E7AC462268E6
:1014900094440028B2D043009846A9E7E673ADE72C
:1014A0005000801803380918487883464846487029
:1014B000587041462000FFF74FFE594680462000F5
:1014C000FFF794FE414602002000FFF745FE8046EC
:1014D000B9E7C04670B5050000292CD0437B8B428C
:1014E0002ED04C0000686418033C0419A278002A2E
:1014F00021D053009B18033BC25CC6188A4202D11C
:101500001BE0002A08D053009B18033BC3185A78ED
:101510008A42F6D162785A70002301222800A37013
:101520006370FFF7A9FE697B02002800FFF714FE35
:101530006873012000E0002070BD63783370EBE732
:1015400001221900FFF798FEF2E7C04610B504002B
:10155000FFF75EF801002000FFF70EFAFF2323716A
:10156000BFF35F8F10BDC04610B50400FFF750F801
:1015700001002000FFF700FAFF23A380BFF35F8F75
:1015800010BDC04610B504000120FFF74DF8034B15
:10159000C3189B002360BFF35F8F10BD4000003471
:1015A0002B4B2C4A70B51A602B4A2C4B2C491A60D5
:1015B00014008B689C43FBD12A4D2B4EB54208D2B8
:1015C000013E761BB60808CD984723000134B3428C
:1015D000F9D100F095F8254A204B1A60204A93680B
:1015E000DB43DB01DD09002BF9D14022204B214EEA
:1015F000214C9A675A671A67DA66B44208D22368A0
:1016000020000834002B1FD0FFF7AEFFB442F6D302
:101610001A4C1B4EC022B168200000F0A5FBB4603C
:10162000FEF7E8FFFFF796F9FFF7C8FB154C164EDB
:10163000B44208D2013E361BB60808CC98472B00AE
:1016400001359E42F9D170BDFFF780FFD5E7C04656
:1016500000E00040BFCDFBFEFE7F3C0000F00040FC
:1016600000C00040BC090020CC090020FFFFFF01A2
:1016700000F00140BC090020B40900200000002057
:1016800000ED00E0CC090020E0090020094A030039
:101690001068002805D00849C3188B4207D813608A
:1016A000704706480449C31810608B42F7D90120DF
:1016B0004042F5E7D414002000000420381900202F
:1016C00000BEFDE70FB400B5084883B000F0EEFBA4
:1016D000049B002B07D005A91800019100F0E8F940
:1016E000034800F0E3FB00BEFDE7C0464057001092
:1016F0005057001010B50148FFF7E4FF5457001091
:1017000010B50C2082B000F0AFF9FEF76BFF002897
:1017100010D0864B86488649864A18605960986082
:10172000D960186159619861D961186259625A6229
:1017300002B010BD804CA06700F09EF901227F4BE3
:101740001A60636C012BFCD103227D4B1A607A4A2C
:10175000936B012BFCD1013301217A4A7A48009323
:10176000043300F02DF90523784A009301217848CD
:1017700000F026F9774B5A68FF2A02D880225200DF
:101780005A6080226E4B694C12011A60216900294F
:1017900005D0606900F0DEF901300138FDD1E022AA
:1017A0006C4B6D4819680A4002600222196851406A
:1017B00001320A40042102609A681142FCD0802163
:1017C000664A09011160802252005A60644B23610D
:1017D000644B5968FF2900D85A6003220121574BF6
:1017E0001A60604A93681942FCD0E02310680340F5
:1017F0005D480360126803234A4002211340594A9E
:10180000036093681942FCD08021584B090119608C
:101810008021574B490051606361564B5A68FF2A3B
:1018200000D859608022544B12011A60E1690029E6
:1018300005D0606900F08EF901300138FDD1E02358
:101840004C4A11680B404D490B6080214C4B0901FB
:1018500019608021364B49005160E361494B5A6859
:10186000FF2A00D859608022474B12011A60216A72
:10187000002905D0606900F06DF901300138FDD113
:10188000E023404A11680B4040490B608021404BE7
:101890000901196080235B0053608022244BD2022F
:1018A00023623C4B5968914200D25A6080223A4BE5
:1018B00012011A60616A002905D0606900F04AF9D6
:1018C00001300138FDD1E023324A11680B40334921
:1018D0000B608021324B090119608023DB025360C9
:1018E000144B63622F4B5A68FF2A02D880225200A1
:1018F0005A6080222C4B12011A60A169002905D080
:10190000606900F027F901300138FDD1E023254A54
:1019100011680B4025490B608021254B0901196096
:1019200080235B005360124BA36101E7E0090020B4
:10193000006CDC021BB70000008000403CB000409F
:1019400030B00040002F685900800240008C86476C
:1019500000C00240308000403090004030A0004085
:10196000001BB7003C8000403C9000403CA0004081
:10197000405973075480004054B0004054900040D8
:1019800054A000406080004060B000406090004083
:1019900060A000406C8000406CB000406C90004043
:1019A0006CA000404880004048B000404890004093
:1019B00048A00040014B8000C0587047E00900205B
:1019C000F8B504000C2017001D000E0000F0C2F84E
:1019D00043011B1A9901C91AC90009188901380065
:1019E00000F0B8F8069B29041B0319432368002B59
:1019F00020DB194B194DE3185A4253418022520102
:101A000094461B03164A63441360164A13601F0072
:101A1000AA689743FBD1C023221D9B0113432122B7
:101A20002660A0601A602268002AFCDA0822E160C1
:101A30001A60F8BD3F2322681340B342D9D1A3688E
:101A40001B051B0D8342D4D1EE22E368D202134062
:101A50008B42CED1EDE7C0460040FDBF00C0004044
:101A600000E0004000F000408023024A9B00034356
:101A7000D362704700800540AA23064A1B01136009
:101A80002F230549D360054B19605368002BFCDAFE
:101A90007047C0460040024000B0FA0000600240BB
:101AA00010B5002800D110BD00F0AEF9FBE7C0462C
:101AB00010B5094A0300146884B0002C08D0012234
:101AC00000910648524203A9A047012004B010BD6E
:101AD00000F0ECF90020F9E7D8180020A11A001056
:101AE00001480421014B184710040020111B00106D
:101AF000142310B50100188804331B88984710BDC3
:101B0000162310B50100188802331B88984710BDB2
:101B1000F8B54746CE4680B50F1E19D01423994616
:101B2000043304000025012698464B461888434696
:101B300021681B88984701C4431E984101354042E3
:101B40000640AF42F1D13000C0BCB946B046F8BD46
:101B50000126F8E7114A936F9B0813D2106651666D
:101B6000002905D0FFE7FFE7FFE7516F106F7047CF
:101B700004B5002801D00020C04303F0C9FC0021B7
:101B800004BDC046F0B5146E556E576F166FFFF763
:101B9000E5FF1466556657671667F0BD000000D074
:101BA000132370B51D78012D15D010DD1D48FFF7EA
:101BB000A7FF1D4C01008022200000F0D5F8022D67
:101BC0002DD01A48FFF794FF194B186070BD194BC0
:101BD000154CA364F5E7174B134C23606360A360B7
:101BE000E36023616361A361E36123626362A362D3
:101BF000E36223636363A363E36323646364A364B3
:101C0000E36423656365A365E36523666366A36692
:101C1000E36623676367A367E367A364D1E7054BC4
:101C2000A364CEE753440000100B00204C330000A7
:101C300010190020391C001007B5604601880A0AF7
:101C40000230DF2AFAD1C9B2820804D30288408860
:101C50000004104300E00068014A5050039007BDA3
:101C6000100B002051434343C9188C46110C83B21A
:101C70004B4310B4040C614392B280B250436243B0
:101C80001C041B0C001910BC59411304120CC01881
:101C90005141614470470000132310B512481C786D
:101CA000FFF72EFF0100012C0AD003DD80220F4830
:101CB00000F05AF80E48FFF71BFF0E4B186010BDDE
:101CC0000A4C5422200000F04FF80B4B6365A365CB
:101CD000E36523666366A366E36623676367A367BA
:101CE000E3672362E361E5E753460000100C002040
:101CF0004C33000010190020FD1C001007B5604691
:101D000001880A0A0230DF2AFAD1C9B2820804D354
:101D1000028840880004104300E00068014A5050E7
:101D2000039007BD100C002010B5040002F0DAFE8D
:101D3000002804D0034B04199C4200D810BD02486F
:101D4000FFF7C0FC00000420605700100148042188
:101D5000014B184720040020111B0010014B1B6889
:101D60001847000020040020014B5B681847000062
:101D700020040020F0B5C64600B5437C07000D00E6
:101D80001600002B38D0002A2EDD00216A1E904656
:101D90006A5C037C4C1C00200A2A0CD0A64216D098
:101DA00043461B5D21000D3B5A4253416A5CDBB246
:101DB0004C1C0A2AF2D1002BF0D1814217DC0221FF
:101DC00010483B689847A64207D02000E8E78642C3
:101DD00003DD311A3B6828189847AD19013D2B786F
:101DE0000D3B5A4253413B7480BCB846F0BD091AC2
:101DF0003B6828189847E2E70368110028009847D5
:101E0000F2E7C046D8570010F0B5CE46474680B539
:101E100083B06B46DE1CD02330701B061C68204B41
:101E2000804601A91800994603F07AFB071E20D0CE
:101E30001C4B1C68002C29D01B4D02E0E468002CD0
:101E40000FD02368002BF9D02B68002B01D0A342C0
:101E5000F4D1200001223100FFF78CFFE468002C50
:101E6000EFD1002F12D1404603B0C0BCB946B046F6
:101E7000F0BD019B64B29C420CD0484603F060FB6D
:101E8000084B1C68002C01D00127D5E7484603F019
:101E900037FBE8E7034B1C68002CCDD1E3E7C046D5
:101EA000B4090020C8140020D0140020F0B5DE468C
:101EB00045464E465746E0B583B0060003F044F968
:101EC000D0231B061C68304B050001A918009B4657
:101ED00003F026FB804600283DD02C4B1C689A4618
:101EE000002C47D00A232A4F994602E0E468002CD0
:101EF00017D02368002BF9D03B68002B01D0A342F8
:101F0000F4D120002A003100FFF734FF6B464A4627
:101F100020001A7101A90122FFF72CFFE468002CB0
:101F2000E7D14346002B25D153461C68002C06D030
:101F30006368002B0BD09847E468002CF8D1280088
:101F400003B0F0BCBB46B246A946A046F0BDE4686B
:101F5000002CEDD1F3E7019B64B29C420ED05846B1
:101F600003F0EEFA094B1C689A46002C02D00123BC
:101F70009846B7E7584603F0C3FAD5E7034B1C6809
:101F80009A46002CAED1DAE7B4090020C81400202C
:101F9000D01400200A4A1368002B05D10CE01A0067
:101FA000DB680C32002B07D09842F8D1002902D10F
:101FB000C3681360C16070470029FCD01060FAE765
:101FC000C814002010B500F0A9F810BD70B5184C69
:101FD00082B006000D00200001A903F0A1FA00283C
:101FE00008D1D0231B06019A1B689A421CD02000FE
:101FF00003F0A6FA002001F05BFD002807D10325BD
:102000006D42200003F07CFA280002B070BD002071
:1020100001F066FD0028F2D02A003100002001F016
:102020006BFD051EEBD0ECE703256D42ECE7C046E7
:1020300018190020F0B5DE464E465746C0B5344B61
:1020400082B081460D00180001A99B4603F068FA92
:10205000002808D1D0231B06019A1B689A4250D051
:10206000584603F06DFA002001F022FD002840D010
:102070000024002D42DD274B9A4612E04B460020FB
:10208000191901F0A9FD060000F046FD002001F03D
:1020900069FDFEF785FF534618605960A419AC42EC
:1020A0002CDA002001F0B2FD2E1B0200B04200DD50
:1020B0003200002AE2D100F02FFD002001F052FD95
:1020C000002001F0F5FC002818D0002001F09EFD52
:1020D0000028E4D1FEF764FF002753460E4E1A682D
:1020E0005B6892197B41994208D8D8D19042D6D9E1
:1020F00004E000200021074B18605960584603F0A7
:10210000FFF902B0E0BCBB46B246A946F0BDC046EE
:1021100018190020080B002020A1070010B5054B5E
:1021200005481B78FFF712FA04480121FFF732FF38
:10213000012010BD7859001018190020300400202B
:10214000F0B5982357464546DE464E46674AE0B509
:10215000D75880253C006D0285B02C40883B2F422B
:102160000ED001222321624B00205A546149DA70BB
:1021700001F062FA80222C005F4B92021A655F4BDD
:10218000FA0617D480235B011F424BD18023DB0169
:102190001F4200D080E080231B021F4200D089E054
:1021A000BC4200D09DE005B0F0BCBB46B246A9469B
:1021B000A046F0BD4D4A926D9046002A2DD04E4A61
:1021C0000024934601229146494A012692464246FE
:1021D0005146B8469A461700039104E00134760050
:1021E000E4B2202C17D03742F8D05B469E654B46B0
:1021F0006508A3436D00ED18039B6D019C46654483
:10220000280000F00BFB00285FD10134B743E4B293
:102210007600002FE5D1474653461C0080235B0122
:102220001F42B3D01C430023304A00211360314ABF
:1022300033489360D360136153619361D361136238
:1022400053629362D362136353639363D3631364E0
:1022500053649364D364136553659365D3651366C0
:1022600053669366D366136753679367D367F02209
:102270009200FFF773FD234B234A00211A600020D0
:10228000012201F0ADF980221B4B12031A65802355
:10229000DB011F4200D17EE70122042100201C4304
:1022A00001F00CF91022144B1A6580231B021F4207
:1022B00000D175E70122052100201C4301F0FEF842
:1022C00080220D4B12011A656AE74B46AA8AA9784B
:1022D00000200093002301F0D7F9280000F0DAF97C
:1022E00093E7210009487940FFF7ECF9000011500D
:1022F000D8140020000010500030115010000100D0
:1023000018150020DC18002080011050FC57001028
:1023100010B501210520FEF799F910BD10B5002276
:102320000021024800F0DEF910BDC046F81400207C
:102330008022024B5202DA647047C04600201150DE
:10234000F0B5C64600B5060000F07EF90C232E4D10
:102350000520AB672D49FEF793F9402398462C4C96
:10236000402200212000FFF7F9FC43460127A38308
:1023700021210023274A6770A260136063545F31F4
:1023800061844146A18702396354234A234963602B
:10239000E260A1620B60E262214A63622000936006
:1023A000D360136153619361D3611362536293628B
:1023B000D362136353639363D3631364536493646B
:1023C000D364136553659365D3651366536693664B
:1023D000D366136753679367D367F0220021920097
:1023E0004030FFF7BBFC0F4B0F4A30001A608023D0
:1023F0009B052F64EB6490230C4AEA50FFF798FF8B
:1024000080BCB846F0BDC04600001150412100100C
:10241000D81400208400105000011050800010508B
:1024200000001050DC1800208001105010D0010076
:102430000B785B0602D14B78052B00D070478A7869
:10244000014B1A60FAE7C04600001150F0B5CE46C5
:102450004746072380B548798E780A790340C878C3
:102460007F21800731401B02F40913434F00820F84
:10247000944691462A4D3A195201AA18967001269F
:1024800066405670604600269383D6709077CA00E7
:10249000012C29D023488446880162448446AC44F8
:1024A000604682601660002929D01F4AC900904604
:1024B000414441603F223F3393434A46022A00D1C0
:1024C0005B001A493F190A687F01D3180B60184B4B
:1024D000ED195340EA604A469006184380236A6823
:1024E0001B060343136010E01248844688016244CF
:1024F0008446AC4460468262166000290AD10023FB
:1025000064012C1963600C4BE3600120C0BCB94628
:10251000B046F0BD064AC900904641444162C9E751
:10252000D81400208400105004001050DC18002043
:102530000000105080001050000110500022154B78
:1025400010B59A60DA601A615A619A61DA611A62AA
:102550005A629A62DA621A635A639A63DA631A6495
:102560005A649A64DA641A655A659A65DA651A6675
:102570005A669A66DA661A675A679A67DA67F032B5
:10258000920000210448FFF7E9FB044B044A1A605B
:1025900010BDC0460000105018150020DC180020A7
:1025A0008001105010B57F200C0020404000E4094D
:1025B000110000191A00034B4001C01800F092F8F6
:1025C000012010BDD81400207F23180010B508404A
:1025D000CA090B4203D107497D3B9B1A8B66400019
:1025E00080188022044B40010021C018120100F025
:1025F00057F810BD00201150D81400207F2213007E
:1026000010B50B400A4200D110BDC9095B005B1830
:1026100004485B01C018002300220349C37000F086
:102620003FF8F1E7D8140020FFF7FFFF7F21C20930
:10263000034B9200014010B5D2580248FFF742F810
:10264000440400201058001080220D4B520410B595
:102650001A600C4B0C491A6010008B689843FBD130
:102660000A4C9C2200212000FFF778FB80220021E9
:1026700052010748FFF772FB0923636710BDC0468C
:1026800000E0004000F0004000C000400000115099
:1026900000001050002303744382838283617047DB
:1026A00010B58368002901D01C682140002A11D090
:1026B0008024E400114322420CD01A6822420BD13C
:1026C000074A0A401A60FFE7FFE7FFE7FFE7FFE777
:1026D000FFE78368196010BD8078FFF7A7FFC04649
:1026E000FFFBFFFFF0B5C646002300B58382013330
:1026F0000374436804001F68838B81611E1C93422E
:1027000000D9161C8020B6B2921B93B2E278C000AA
:10271000304315008446681E854160466D030543BD
:1027200001204240E27062786382002A50D0002B80
:102730002CD0802252011543344A126C920743D5A3
:10274000A28B111C9A4200D9191C8AB28021C9009F
:1027500011439B1A9046E2789BB21600701E864188
:1027600076030E4301214A40E27062786382002AB8
:102770003AD0002B02D18023DB011E43A023244A40
:1027800036043A40DB053543134309E0A023DB015F
:102790001D431E4B1B6C80231E4A9B053A4013436E
:1027A00062681360A26813685B052BD41A4B2B4038
:1027B0001360FFE7FFE7FFE7FFE7FFE7FFE7A36837
:1027C0001D6080BCB846F0BDA278D209B8D1E2E75E
:1027D0003200E068FFF7C8FAA3699B19A361802360
:1027E0001B021D43638AA2E7E0684246A1694030AC
:1027F000FFF7BAFAA3694344A36180231B021E4377
:10280000638AB6E7A078FFF711FFC04600001150B9
:10281000FFFFFFDFFFFFFFAFFFFBFFFFF0B5C64687
:1028200000B5067C0400002E00D1CDE083681A6854
:102830001D684378AD05AD0D002B00D06FE0838A95
:10284000EB189BB28382A18B62688D4206D2002373
:1028500063821368300080BCB846F0BD1268520035
:1028600010D58D420ED1A26815686278AD01AD0D0C
:10287000002A00D08CE0EB18A3828D4202D2002304
:102880006382E7E7638A002BE4D062681E1C176846
:102890008B4200D90E1CE17880220D00681E854114
:1028A000B6B2D20032436D03154301229B1B514047
:1028B00062789BB26382E170002A5AD0002B3BD031
:1028C000802252011543454A126C920702D4A27825
:1028D000D20936D0A28B111C9A4257D88AB28021D5
:1028E000C90011439B1A9046E2789BB21600701EF5
:1028F000864176030E4301214A40E270627863828A
:10290000002A53D0002B02D18023DB011E43A023D9
:10291000334A36043A40DB053543134316E02A00B8
:102920008069E168FFF720FAA38AA269EB189BB2DD
:102930005219A382A26186E7A023DB011D43274B26
:102940001B6C8023274A9B053A401343626813603F
:10295000A26813685B053ED4234B2B401360FFE74E
:10296000FFE7FFE7FFE7FFE7FFE7A36800261D603B
:1029700070E73200E068A169FFF7F6F9A3699B19D7
:10298000A36180231B021D43638A97E7191CA5E7F7
:10299000E1682A004031A069FFF7E6F9A38AA18B1C
:1029A000EB18A382A3695B19A36166E7E06842465E
:1029B000A1694030FFF7D8F9A3694344A36180239C
:1029C0001B021E43638A9DE77F238178074A0848DC
:1029D0001940FEF777FEA078FFF728FE000011509F
:1029E000FFFFFFDFFFFFFFAFFFFBFFFF44040020FF
:1029F00030580010024B5878431E9841C0B27047BF
:102A000018120020024B18784007C00F7047C046CC
:102A100018120020014B18787047C0463119002069
:102A2000F8B54746CE4680B5314F05003B78002BC0
:102A300004D00120C0BCB946B046F8BD53220021E5
:102A40002C48FFF78BF92C4C2000FEF77FFD2B4B19
:102A50001C602B4C20001C3CFEF794FD200001F074
:102A6000ABFE284B284E1C60284B9846002B2FD0DD
:102A7000300000E000BF4246254B00241860337848
:102A8000002A2AD0234A9046214A9146A34218D8C8
:102A9000E31ADBB2012B27D85A00D318DB004344DA
:102AA0001B68984733780134E4B25A1CA242EDDA2D
:102AB0002800FFF745FC2800FFF72AFC01233B70A4
:102AC000B7E74B4662001B681219D2009B18E7E774
:102AD000424600243378002AD4D101F0A3F801F053
:102AE000B7FA3378002BE3D000231B68FFDEC04623
:102AF0003119002018120020D01100206C12002083
:102B0000680400207012002030190020000000002E
:102B100034100020F0580010F0B5DE4657464E46FF
:102B20004546E0B593B001F001FC002852D0D04BEF
:102B3000D04F0193D04B0FAC0493D04B0293D04BAA
:102B400003933D68EA69EFF3108172B61368002BB6
:102B5000FCD0BFF35F8F29622800210001F0A0FCA8
:102B6000EA692B6ABFF35F8F0021116083F310883D
:102B700000282FD06378082BE3D8019A9B00D35804
:102B80009F466368002BDCD0A0689847D9E77F2276
:102B90002179B94B0A405500C8095B191B18180068
:102BA00001263030C578B543C570C5780336B543C6
:102BB000C570002A00D128E1B24ADB7C002A06D089
:102BC000B14A1278934200D2E6E19B1ADBB2012BA4
:102BD00000D80FE113B0F0BCBB46B246A946A046F0
:102BE000F0BD0122A44D01212B78042013432B704A
:102BF0003323EA5C8A43EA54EA5C8243EA540133B1
:102C0000EA5C8A43EA54EA5C8243EA54237800206F
:102C10009A4600F0BFFE602223791A40602A0DD048
:102C2000402A00D114E1DB06DB0E012B00D17AE152
:102C3000022B00D140E1002B00D12FE120780021B0
:102C4000FFF7C2FC80212078FFF7BEFC79E7049BE8
:102C50001B78DB0700D474E78C4B002B00D170E7A6
:102C6000FDF770FB6DE7844A1378DB0700D468E753
:102C7000874B002B00D164E710780007C00FFDF7E9
:102C80005FFB5EE7804E7F4B00253178002B00D143
:102C9000CDE07A4B98467A4B9946A94216D86A1AE3
:102CA000D2B2012A00D9C5E053009B18DB0043448F
:102CB0005B69002B13D02078984731780135EDB24D
:102CC0004B1C9D4200DD3CE7A942E8D94B466A0017
:102CD0001B685219D2009B185B69002BEBD10135A0
:102CE000EDB24B1CAB42D8DA2BE72378664E654A2F
:102CF000984600253378002A00D19EE0B946370077
:102D000046469D426FD3EB1ADBB2012B00D98BE014
:102D10005A00D318029ADB00944663445B68300083
:102D200098473B780135EDB25A1CAA42E9DA4F4682
:102D3000514D532200212800FFF710F81022FF21E7
:102D4000E81CFFF70BF828002022FF211330FFF7C3
:102D500005F800F015FE4F4B002B00D1F1E6FDF712
:102D6000EDFAEEE62378484E464A98460025337839
:102D7000002A50D0414A9146414A92463200464686
:102D8000B84617009D4227D3EB1ADBB2012B4BD874
:102D90005A00D318DB004B445B68300098473B78FF
:102DA0000135EDB25A1CAA42ECDA4746324D5322A5
:102DB00000212800FEF7D2FF1022FF21E81CFEF7B9
:102DC000CDFF28002022FF211330FEF7C7FF00F0BF
:102DD000D7FD2379AB70B4E653466A001B685219DD
:102DE000D2009B18D8E7039B6A001B685219D200D7
:102DF0009B1893E75D00ED18204BED00ED18A368DC
:102E0000627920782D69A8479BE6A36862792078CB
:102E100000F0D4FD95E6404600F03CFF404601F04E
:102E200021F93378002BC1D000235B68FFDE002935
:102E300000D186E600235B69FFDE404600F02AFFF2
:102E4000404601F00FF93378002B00D170E7EBE733
:102E50001148002800D1F1E600F09CFD0021504609
:102E600010AA00E000BF002800D06AE6E6E6C046EF
:102E7000645800107012002018120020F058001042
:102E8000341000200000000030190020450300101D
:102E9000410300103D03001000000000202A00D173
:102EA0001FE1002A00D0C9E66379092B00D9C5E6E5
:102EB000C64A9B00D3589F467023217A0B4200D00C
:102EC000BCE6C80984460F330B405B00E818604439
:102ED000C67CBF48002805D0BE480078864278D31B
:102EE000361AF6B2012E61D99346002A00D0A5E623
:102EF000022290466679404632008243012A00D180
:102F00000FE1002E00D099E6EB1863443033DB78F4
:102F10000EAA9B07DB0F023213805046022310A932
:102F200000F0D8FC0DE6237A0F2B00D986E6A84ADC
:102F3000EB18DB78002A05D0A64A1278934258D3C2
:102F40009B1ADBB2012B00D978E65D00ED18A24B8D
:102F5000ED00ED18E86800F01DFD00215046EB681B
:102F600010AA9847002800D0EBE5602215002379CD
:102F70001D401A4200D061E663790A3B012B00D95B
:102F80005CE600F007FD63790A2B00D1F3E05046C0
:102F900010A900F089FCD4E590485A000568D318C0
:102FA000DB00ED18002D00D029E713E67000801932
:102FB000C600B34688488344002A99D05B46D86847
:102FC00000F0E8FC5B4600215046DB6810AA9847F9
:102FD00049E782480590700080460598464400689D
:102FE000F6008346B344002A82D05B46002BE5D12D
:102FF00024E67A495A000D68D318DB00ED18002D3D
:10300000A8D11BE66B780EAA02321370504601233A
:1030100010A900F05FFC94E5E3881A0AD8B20F2AE1
:1030200000D90BE66E499300CB589F4610A800F0DC
:10303000B7FC5046A179FFF771F902222B781343B0
:103040002B707EE5E388012B00D0F7E508222B7872
:103050005046134310A92B7000F026FC71E5A379AC
:1030600008931A006B789A4207D06B78002B00D037
:1030700046E1089B002B00D0B6E0089B504610A903
:103080006B7000F011FC5CE5E388012B00D0D5E506
:1030900008222B785046934310A92B7000F004FCB3
:1030A0004FE5022029780EAB9A1C8B068908DB0FAE
:1030B00001400B4330E7022A00D1E7E1494B002BE6
:1030C00000D1BBE500E000BF0200002A00D1B5E559
:1030D000D37891781B020B43504610A900F0FAFBFD
:1030E000C1E6237A0F2B00D9A8E5394AEB18DB7823
:1030F000002A05D0374A1278934233D39B1ADBB2A9
:10310000012B00D99AE55D00ED18334BED00ED1869
:10311000E86800F03FFC00215046EB6810AA984791
:10312000A1E6E288002A07D1012E39D0EE186644C4
:103130003036F3789B0727D55B46002B00D100E59E
:10314000D86800F027FC5B460021DB6810AA5046D7
:103150009847002000F01EFC3423EB5CDB0700D511
:10316000EFE414E71D495A000D68D318DB00ED1891
:10317000002DCDD162E50EAB9A1C5046012310A95B
:10318000157000F0A7FBDCE45046FFF71DFA0222A1
:10319000F37813430122F370F3781343F370CBE712
:1031A00030329146EB18634499444B46DB789B07D9
:1031B000C2D55046FFF722FA4B464246DB7893438E
:1031C0004A46D370D378B343D370B5E7885800101C
:1031D0000000000030190020F058001034100020CA
:1031E000B058001000000000581EC0B2FDF7C0F833
:1031F000002800D122E543780993022B00D01DE579
:103200000121C279931152110B400A4012015B0156
:1032100013432A782F318A4313432B7009239B468B
:10322000C37882781B021343C3180A93994B8344D3
:103230000793994B06970B93984B0C93984B0D93D0
:103240002B005D469B460A9BAB4200D815E101224C
:103250006B7891460B2B04D1EB7899462B78ED18BF
:103260006B78042B4AD10A9B0B9A5B1B9BB2984646
:10327000079B1B78002A00D197E0002200260592C8
:103280001BE0F31ADBB2012B00D9AAE05A00D318D5
:103290000C9ADB009F18424629005046BB689847AD
:1032A000082802D94346834210D2079B01361B7877
:1032B000F6B25A1C0596B24220DBB342E1D90D9A10
:1032C000730017689B19DB00FF18E4E7B846070096
:1032D0004B46012B00D1BDE04B46002B00D183E0D3
:1032E0000023A97804E00133DBB2D6704B457BD2D2
:1032F000CA18D2B25A44D078FF28F4D0069F9DE471
:103300005046FFF71BF9AB78624E634A9B4600219B
:103310003378002A37D0614A0592614A91462A00E3
:103320000D0090469D4227D3EB1ADAB2012A00D94C
:103330007AE553009B18059ADB00944663445B686A
:103340005046984733780135EDB25A1CAA42E9DA63
:103350004546532200212800FEF700FD1022FF21E0
:10336000E81CFEF7FBFC28002022FF211330FEF7AB
:10337000F5FC5B46AB707CE64B466A001B68521955
:10338000D2009B18DBE7504600F084FC504600F06A
:1033900069FE3378002BDCD046E5424B002B00D190
:1033A0004CE400E000BF020092E6464629003200ED
:1033B000504600F085FC0700082801D9864243D218
:1033C000464629003200504600F056FE0700082805
:1033D00001D986424BD2079B069F1B78002B00D158
:1033E0002CE400239B68FFDE33003A0029002E48BE
:1033F00000F0E0FF079B059A1B78ED19013393421B
:1034000000DB20E7069F19E4FCF7AAFF1223020065
:1034100010A9504600F05EFA25E5244B002B00D1A0
:103420000CE400E000BF021E01D1FFF707FC50468C
:10343000137810A900F04EFA15E52189FCF79CFFDE
:10344000021EF4D1FFF7FAFB4B460026012B0AD0EF
:10345000059641E74246164B92689A4200D03FE7F4
:10346000099B99463CE7099B0596994638E7012355
:103470001E0005930F4B98462AE70F4B5D46069FAB
:10348000002B00D1F9E5FCF757FFF6E5FCF770FFDC
:1034900002001AE63019002000000000F058001069
:1034A00034100020000000002B120020000000005B
:1034B000C13C0010085900103903001030B587B026
:1034C0006B4605000C00981C0A220021FEF746FC02
:1034D0006B461D705C70042C4FD009D8022C34D080
:1034E000032C19D13C4A13785B0758D407B030BD80
:1034F000052C11D1384A1378DB07F7D5042113784E
:103500008B431370354B1C68E269EFF3108172B680
:103510001368002B09D1FBE7304B1C68E269EFF31D
:10352000108172B61368002BFCD0BFF35F8F21624D
:103530006946200001F086F8E269236ABFF35F8FD5
:103540000021116083F31088D0E70121224B1A7803
:103550008A431A701A780331A2431A7000225A70F3
:103560001A788A431A701D4B1C68E269EFF31081C8
:1035700072B61368002BD8D1FBE7174A1378DB0724
:10358000B4D5042113780B431370144B1C68E26903
:10359000EFF3108172B61368002BC6D1FBE704214C
:1035A0000E20137868448B43137000210A22FEF723
:1035B000D5FB6B466A461D7305235373074B1C6886
:1035C000E269EFF3108172B61368002BFCD0BFF3F1
:1035D0005F8F216203A9ACE718120020701200204F
:1035E00070B584B06B4606000C000A220021981DBD
:1035F000FEF7B4FB012301AD6B700E4B2C711C6800
:103600002E70E269EFF3108372B611680029FCD0C6
:10361000BFF35F8F23622900200001F013F8E269F5
:10362000236ABFF35F8F0021116083F3108804B019
:1036300070BDC04670120020002330B585B001ADCA
:103640006B8028700633082202A86B70FEF78CFB93
:103650000C4B1C68E269EFF3108372B61168002905
:10366000FCD0BFF35F8F23622900200000F0EAFF47
:10367000E269236ABFF35F8F0021116083F3108832
:1036800005B030BD70120020F0B5C64600B584B05C
:103690001D006B4680460F00160000210622981D73
:1036A000FEF75CFB434601AC2370072363700F4BAE
:1036B00065711D682771A660EA69EFF3108372B621
:1036C00011680029FCD0BFF35F8F2B622100280016
:1036D00000F0B8FFEA692B6ABFF35F8F0021116029
:1036E00083F3108804B080BCB846F0BD701200208F
:1036F000F8B54E46DE4657464546E0B51F000A9BE4
:1037000083460C00161E994637D0702398461C4BF2
:1037100000259A4617E053462000997800F00AFEEB
:1037200000281CD021005846FEF790FE002816D035
:10373000A378DA09012A19D04A4613702378013593
:10374000E418B54219DA6378052B08D1E3789B07B2
:103750009B0FBB4203D14246A3781A42DBD0002024
:10376000F0BCBB46B246A946A046F8BD0B9A01354F
:1037700013702378E418B542E5DB0120F0E7C0467A
:1037800018120020702270B58B7805000C001A42C8
:1037900001D0002070BD064B2000997800F0CAFDD2
:1037A0000028F6D021002800FEF750FEF2E7C046C0
:1037B000181200207F2270B5154B0A4052009C1849
:1037C000C90964183034E378DB07DD0F002B18D10A
:1037D000E3785B0701D5280070BD01210D4E4942F9
:1037E000306801F0A5FEE378DB07DD0F002B0AD17E
:1037F000E3785B0708D40422E37801251343E370E0
:1038000002E00025E7E70025306801F079FEE2E7F5
:10381000181200206C12002070B50C0001210F4D11
:103820004942286801F084FE7F230D4A23405B0053
:10383000E409D3181B193033DA780024D20708D4EE
:10384000DA785207D40F002A03DA0421DA788A439F
:10385000DA70286801F054FE200070BD6C12002060
:103860001812002070B57F240E4D0C4064002C19F6
:10387000CE09A4193034E578ED0701D5002070BDDC
:103880000126E5783543E570FEF78CFE0028F6D179
:103890000122E3789343E370E37803329343E370C8
:1038A000ECE7C0461812002070B5094C060008224B
:1038B00020000D00FEF758FA00238021E360A3608A
:1038C0002B783000994300220023FFF7CBFF70BD17
:1038D00090110020F8B5CE4647469046264E80B55A
:1038E0008146082230000D001F00FEF73DFA4346D6
:1038F000B3600023F381EC79AB7924021C43231CD1
:10390000BC4200D93B1C9FB2B381002C0ED0002FCB
:1039100018D04346002B2CD03B1C402F1BD89FB205
:1039200033787F2B1CD80021144A0FE080212B789C
:103930000022994348460023FFF794FFC0BCB946D4
:10394000B046F8BD7F230022317899433B004846BA
:10395000FFF788FFF2E740239FB233787F2BE2D94D
:10396000064C3A0041462000FEF7FEF98021220075
:10397000ECE70020E2E7C04690110020D8110020BB
:1039800010B5142200210248FEF7E8F910BDC04628
:1039900090110020014B18617047C0469011002023
:1039A00010B5054C010008222000FEF7DDF90023C8
:1039B000A360E36010BDC0469011002070B5394C83
:1039C0001D0023780600DA09C9098A4213D00020B5
:1039D000002D00D070BD344B002B03D021003000EF
:1039E000FEF726FD2369002B03D0220002213000C0
:1039F00098470120EEE7A0687F2B05D8002834D037
:103A00002A002A49FEF7B0F9E289A1685219E38831
:103A100092B24919E281A160934214D03F2D12D98C
:103A2000A389981A051C80B240282AD82078ADB204
:103A30007F2828D800219A4232D01C4A2B0030001F
:103A4000FFF710FFC6E72369002B05D022000121F4
:103A50003000984700280AD080212378002299431B
:103A600030000023FFF7FEFEB4E70020B2E700219C
:103A70003000FEF7A9FD30008021FEF7A5FD0120F2
:103A8000A8E74025D2E79A4207D0084C2A00200038
:103A9000FEF76AF980212200D0E780210022CDE7DD
:103AA0000022CBE79011002031240010D811002013
:103AB00010B50400FEF79EFF002801D1002010BDC4
:103AC000FEF7A0FF0028F9D1AC2252006243034B5D
:103AD00001309B181B791840F1E7C04638100020D0
:103AE000AC235B00434310B50248181800F0B2FC49
:103AF00010BDC04648100020F0B5AC256D00454310
:103B00002C00C646164F1034E41900B5200092B2BE
:103B100000F018FD0600200000F0B4FC3F2803D898
:103B2000300080BCB846F0BD7B190020D97898469B
:103B3000FFF740FE0028F3D0200000F0A3FC3F2850
:103B400008D94346D835D978EA1940230020FFF731
:103B500089FEE5E743460020D978FFF75DFEDFE701
:103B600038100020F8B50400FEF744FF002801D10A
:103B70000020F8BDFEF746FF0028F9D1AC235B001A
:103B80005C432500134E2C35AD19280000F062FC73
:103B90000028EDD037190020B978FFF70BFE002878
:103BA000E6D01934FF34A41921002800402200F087
:103BB000C9FCB978051E08D0030022000020FFF7D9
:103BC00051FE0028D4D02800D3E70020FFF724FEC0
:103BD000CEE7C0463810002070B5AC2464004443E2
:103BE000094B0500E418200092B200F067FD0600C2
:103BF000200000F02FFC3F2801D8300070BD2800C5
:103C0000FFF7B0FFF9E7C04664100020AC235B006B
:103C1000434310B50248181800F034FC10BDC046EC
:103C200064100020AC2270B5184C82B00021200036
:103C30005200FEF793F8FF236371154B0025E380D4
:103C400001260823210020002681237340224831C9
:103C50000095073B103000F0C3FB009621002000C8
:103C60002600012340228831C8362C3000F0B8FBF2
:103C70003000FDF76BFCA6622600D036300065628E
:103C8000FDF764FC2664656402B070BD3810002046
:103C900000C2FFFF10B5094C052200212000FEF7ED
:103CA0005DF820002C34103000F086FD200000F07C
:103CB00083FD0121200000F0A5FD10BD381000207B
:103CC000F0B54B79060083B0022B02D18B79022B21
:103CD00003D00025280003B0F0BD2E4FBB78002B89
:103CE000F7D18B7809253B700C780C196378242B5D
:103CF0000BD1082A02D81FE0AA421DD32378E4186A
:103D00005D196378ADB2242BF6D0052B2FD0042B90
:103D100012D163790A2B0FD11F4B277801930133FE
:103D20000093022202233000E119FFF7E1FC002892
:103D3000CFD00E35ED19ADB2184C200000F0A2FB2B
:103D40003F28C7D92600103E0020F178FFF732FD4A
:103D50000028BFD0200000F095FB3F2815D9220095
:103D60004023F178C8320020FFF77CFDB2E7210044
:103D70003000FFF707FD0028ABD0A3787B702378D5
:103D80005D19E4186378ADB2C1E7F1780020FFF760
:103D900043FD9FE7381000203A1000204810002013
:103DA000F8B5602314001278050013400020202B82
:103DB00012D12F4A6379277916781B023B439E4222
:103DC0000AD16378222B27D007D8202B17D0212B9C
:103DD00002D100293DD00120F8BD232BFCD10029C0
:103DE0003FD00229F7D1234B002BF4D0E178A37800
:103DF00009020020194300E000BF0120ECE7002980
:103E000027D00229E7D11C4B002BE4D00020911DC4
:103E100000E000BF0120DFE7002922D00229DAD12B
:103E200001252E00A378E478013924021C43147183
:103E300026402C321000714000F0E4FC0F4B002BA8
:103E4000C9D06208002031002A4000E000BF0120F4
:103E5000C2E7072321002800094AFFF73BFD0120A4
:103E6000BAE721002800FFF71FFD0120B4E7C04694
:103E700038100020000000000000000000000000DA
:103E80003E100020F8B545465746DE464E46E0B5A2
:103E9000454D1F00EA7880460C00AB788A4246D038
:103EA00000208B421AD0F0BCBB46B246A946A046C1
:103EB000F8BD3E4B002B04D0484600F0DBFA00284A
:103EC0006AD0484600F0DEFA3F2807D94E46103E39
:103ED0000020F178FFF76EFC002850D1AB78A342A8
:103EE00001D00120DFE7324B002B02D0002000E0A0
:103EF00000BF0020FFF736FE0028F2D12D4C200035
:103F000000F0A8FA0028ECD1002FEAD0BF06E8D1D3
:103F10002C3C4046A178FFF74DFC0028E1D000235F
:103F200000224046A178FFF79DFC0120BBE710234B
:103F30002E009B46D836AB4431005846BAB200F04A
:103F4000BDFB1D4BD946002BB3D06B79FF2BB0D0F6
:103F5000002FAED0F219924603E00136B245A8D048
:103F60006B7932789A42F8D1484600F083FA0028FB
:103F7000F3D14B46103B597900E000BFEDE74846CE
:103F800000F080FA3F280AD94A464023F178C83227
:103F90000020FFF767FCA1E700E000BF91E7F178A0
:103FA0000020FFF739FC99E73810002000000000DE
:103FB000000000006410002000000000F8B52C2470
:103FC0004746CE464443214E80B51F0033190500B5
:103FD0008846002059789146FFF7ECFB00281DD059
:103FE000434608343419002B1CD03B1C0F2F23D818
:103FF000DFB22C2342466B43F3181A7249463A004B
:10400000601CFDF7B1FE0137FFB22C236B43F6189D
:1040100022003B0000207178FFF724FCC0BCB946A9
:10402000B046F8BD3B1C102F08D8DFB23A00494615
:104030002000FDF799FEE8E70F23D9E71023DFB250
:104040003A0049462000FDF78FFEDEE7A41100206C
:1040500010B52C2200210248FDF780FE10BDC0469D
:10406000A411002010B52C2200210248FDF776FE95
:1040700010BDC046A4110020F0B54B7906000D001C
:1040800083B0032B10D10879C400241A1234A4B2CF
:10409000944209D8194F7B78002B05D129786918EB
:1040A000B9624B78212B03D00024200003B0F0BD6F
:1040B0000B780200C9187B1C0193BB1C00933000D5
:1040C0000323FFF715FB0028EED0AB79012B01D1BC
:1040D000EB79FB700123B96A3B71AB78073102229F
:1040E000B81D3B70FDF740FEB9780029DDD03A00DD
:1040F000102330001832FFF7B5FBD6E7A4110020DB
:104100001F23F0B514001278050083B01340012B73
:104110001BD1624E20793378984216D16023180063
:104120001040134208D020280FD163780B2B0CD8F5
:104130005B4A9B00D3589F46002917D1E378A178AA
:1041400062781B020B43062A02D0002003B0F0BDA8
:104150001B0A212B76D0222BF7D10020FCF704F983
:1041600021000200F3882800FFF7B4FB0120EDE7EF
:10417000002917D00229F9D1A1784A4B3171002BBF
:10418000F4D0002000E000BF0120DFE70029EDD1DE
:10419000E178454B7171002B04D0002000E000BF96
:1041A0000028D2D021002800FFF77EFB0120CDE7B8
:1041B000002951D1E379A2791B021343102BC4D8F3
:1041C00021002800394AFFF785FB0120BEE70029BE
:1041D000CCD1012321002800354AFFF77BFB0120C9
:1041E000B4E70029C2D1012321002800314AFFF79A
:1041F00071FB0120AAE70029B8D1E379A0791B025D
:104200000343E278A178181C102B00D9102080B24B
:1042100000293FD0012B3DD93300012701383172ED
:1042200080B2093300900020FCF78EF83B189BB257
:10423000002B00D189E7210028001F4AFFF74AFB25
:10424000012083E7B26A002A00D17EE7210028001E
:104250001378FFF73FFB79E7022987D1E079A3794B
:1042600000021843E278A178041C102800D9102419
:104270000E4BA4B2002907D0012805D9307E884210
:1042800002D1013C0D4BA4B200200094FCF75EF873
:1042900001205BE70027084BC4E7C046A4110020BB
:1042A000205900100000000000000000BC11002098
:1042B000A8110020A9110020AC110020BD11002080
:1042C00070B5144C0500A278667882B08A420ED090
:1042D00000208E4201D002B070BD0F4A002A04D0E7
:1042E00000200E49DAB200E000BF0120F3E7964259
:1042F000F3D026009BB21836009300223300002131
:104300000020FCF723F8102332002800A178FFF7E3
:10431000A9FAE0E7A411002000000000AC11002081
:1043200010B50020FEF77CFB10BDC04610B5FEF7AF
:1043300071FB10BD072210B54479037922401202A7
:104340001A43C3789B079B0F022B05D0032B15D074
:104350000020012B08D010BD02291ED000204023D0
:1043600093424041C0B2F6E702394B4259410E4BED
:104370009C46614491424041C0B2ECE702394B1E79
:1043800099410A4B494219408023DB009C4600209A
:10439000614491424041C0B2DDE7054BD018434231
:1043A0005841C0B2D7E7C046FF03000040FCFFFF02
:1043B00000FEFFFFF0B5002A11D000247F274D78C2
:1043C000052D06D13D008E7835406D00F609451962
:1043D000AB550D782C19A4B24919A242EFD8F0BD03
:1043E000F0B5C64600B5150006AA1E001378802257
:1043F00004000F0098461202954229D8406900280F
:1044000003D00121494201F093F8A069002803D0AC
:104410000121494201F08CF84346A5806D00ADB200
:1044200023726B1EA381002360696D42E3812760C4
:10443000E68065812382002801D001F061F8A0693F
:10444000002801D001F05CF8012080BCB846F0BD26
:104450000020FAE7C189028A8B1A9BB2914202D2EC
:1044600042899B1A9BB28288101C9A4200D9181C60
:1044700080B27047C389008A181A43425841C0B2BB
:104480007047C04610B5C489018A8388621A92B207
:104490008C4202D24189521A92B2981A80B210BD4F
:1044A00070B5040080690E00002803D00121494244
:1044B00001F03EF8E089228A81B2851A93B2ADB24A
:1044C000904202D26289AD1AADB2A288AA422BD222
:1044D000914222D260891018091A89B221829A4227
:1044E00003D89B1A9BB29A42FBD9E28821685343B6
:1044F0003000C918FDF738FC228A0125531C9BB2F5
:104500009A4215D962899B189BB2A0692382002820
:1045100001D000F0F5FF280070BD891AA08989B28A
:10452000884209D315002182002DDCD1238A9BB259
:10453000A2899A42E9D2E5E760891500091A89B291
:104540002182F1E7F0B54F464646D6460500806920
:1045500088469146C0B5002803D00121494200F0A9
:10456000E7FFEA892B8A91B2D61A9CB2B6B29A4278
:1045700002D26B89F61AB6B2AF88B7423DD2B942C1
:1045800032D23E006B89FB18CB1A9BB22B822C8A4D
:10459000A4B24B46B1454BD89EB2A74203D8E41B08
:1045A000A4B2A742FBD9EA882968914662433B1B23
:1045B0009BB289184A469E4235D953439BB21A0092
:1045C00040469A46FDF7D0FB4B464046F71BE419A0
:1045D0005C4329685044A2B2FDF7C6FB2A8A9319AE
:1045E0009BB29A4210D80CE0C91BAB8989B28B42AE
:1045F00020D33E0029822C8AA4B2002EC9D12B8A56
:104600009BB2AA899A4202D26A899B189BB2A86976
:104610002B82002801D000F073FF3000E0BCBA46C6
:10462000B146A846F0BD40467243FDF79DFBD5E775
:10463000331CB1E76B893E00C91A89B229822C8AE2
:10464000A4B2DAE770B5040040690E00002803D078
:104650000121494200F06CFFE289218A95B2531A88
:104660009BB2914202D962899B1A9BB2A2889A425C
:1046700020D02B00954203D39B1A9BB29A42FBD9C0
:10468000E288206853433100C018FDF76DFB6B1CB6
:104690009BB29D420AD962899B189BB26069E381F3
:1046A000002801D000F02CFF012070BDA2899A42A1
:1046B000F4D2F0E7207A0028DBD1F6E7F8B54E46D1
:1046C0005746DE4645468946E0B50600171E59D0D6
:1046D0004069002803D00121494200F029FFF389F5
:1046E000327A9BB29846318AF388B5889A4689B265
:1046F000002A39D143465A1A92B2884502D27189AA
:10470000521A92B2AA1A111C92B2BA424ED88FB261
:104710007A1B93B29B464446A84503D3641BA4B2BC
:10472000AC42FBD25346634330682D1BADB2C01878
:10473000AF4229D8524649467A43FDF715FB434616
:10474000FB189BB2984519D8B2899A4216D3706962
:10475000F381002801D000F0D3FE3800F0BCBB4646
:10476000B246A946A046F8BDAF4221D37F1B5F43A6
:104770000023B94488462F009B46CCE772899B18DA
:104780009BB2E4E70027E8E753465D43ADB22A0059
:104790004946FDF7E9FA2200534629005A445A4394
:1047A000306892B24944FDF7DFFAC8E7391CAEE73A
:1047B0007A1B93B29B46AEE710B50400406900280F
:1047C00003D00121494200F0B3FEA069002803D0C4
:1047D0000121494200F0ACFE0023E3812382A3883B
:1047E00060695B009BB25A1E5B42A2816381002814
:1047F00001D000F085FEA069002801D000F080FE05
:10480000012010BD70B5040040690D00002803D0E0
:104810000121494200F08CFEA069002803D001214B
:10482000494200F085FE60692572002801D000F041
:1048300067FEA069002801D000F062FE012070BD73
:1048400010B5024800F004F810BDC0460819002059
:1048500030B5002589B004000922002101A8009587
:10486000FDF77CFA0922002105A80495FDF776FAE8
:104870004B236A466846137004A90D2200F038FEE7
:104880001521082220006944FDF76EFA09B030BDF9
:10489000F8B5DE4657464E4645468346E0B5052008
:1048A0000C00FDF787F80600600821008019FDF76D
:1048B00051F9430098468044070005214046FDF722
:1048C00049F93B1A9A46204B8146700080199C4258
:1048D00034D81E49FDF73EF9451C5B461C68002391
:1048E0000422E36623680120534002321A408023E9
:1048F0005B0123431A605346E3614B462362434600
:104900004F2B03D950214046FDF724F9A023E05056
:10491000E36F22005D4080237C322D045B01134352
:104920002D0C1D60012339003000E366FDF712F9FC
:10493000F0BCBB46B246A946A046F8BD0449FDF707
:1049400009F9451CC9E7C0463F420F008096980010
:1049500040787D01104A70B5821A53425A410723AC
:1049600052429A430D4B10321A600D4B0D4C1A6097
:104970001500A3689D432B1EFAD166240268FF34FC
:104980000571D5661460633C8833FF3CD56395633D
:10499000D450FFF77DFF70BD7004002000E00040A0
:1049A00000F0004000C00040F0B557464E46DE46DD
:1049B00045468446E0B583B01F000CAB18786346CB
:1049C000914600221B680190DA6601325960DA666E
:1049D000002F4FDD7A1E9046624612790126920220
:1049E000802493463A004640760280253700002016
:1049F00046461021A2469046AD00341A6242544108
:104A00004A4664423C4000945C46125C2243009C4F
:104A100022431A615A6B1142FCD052469C58002C1A
:104A200010D1864221D00022013093468045E4D146
:104A30006346019A1A7103B0F0BCBB46B246A94660
:104A4000A046F0BD5A6D012293465A6B2A42FCD013
:104A50001A6E5A46002AE6D0002C03D0E30701D490
:104A60002407E5D402204042E2E7019A002ADAD185
:104A70009346EAE70020DBE770B59E25084C2D0140
:104A80002800E560FDF750F9A060002802D1E06041
:104A9000606070BD0023606005604360F9E7C04658
:104AA0001C0D00207047000010B5034A034904485C
:104AB00000F008F810BDC04678030020A54A001099
:104AC000100D0020030010B50800190000F0F6FAE0
:104AD00010BD000010B5010000230022002000F0EE
:104AE00061FB10BD10B5034B0100186800F004F81D
:104AF00010BDC04688080020F0B54E464546DE464B
:104B00005746E0B50D000B35060085B0162D27D8A9
:104B1000102900D9D0E000F0C1FA10251823022195
:104B2000BF4FFB181A005C68083A944200D136E186
:104B3000032263689343E268A168CA60916001211F
:104B4000E3185A6830000A435A6000F0AFFA2000B8
:104B5000083005B0F0BCBB46B246A946A046F0BD41
:104B600007239D4300D5A7E0A94200D9A4E000F0A7
:104B700095FAFC235B009D4200D28AE1690A00D1CC
:104B80009EE0042900D93FE138239846A9098844CA
:104B90003931C800A24F381844680838A0420ED0F6
:104BA00003239C4604E0002AC5DAE468A04206D04C
:104BB0006246636893435A1B0F2AF4DD41463A006C
:104BC0003C690832944200D1D8E0032063688343F3
:104BD000581B0F2800DD60E13A617A610028AEDAE7
:104BE0007A68904680229200934200D3DDE0DA0892
:104BF000580901238340404618438046D300DB19FF
:104C00009A687860E360A2609C60D46001208B1099
:104C1000984040455CD8434603420AD10323994358
:104C2000434640000431034203D1400004310342B3
:104C3000FBD00323B3469C460E00B8460190F0001B
:104C400040440100B246CB680BE064465A681F003E
:104C5000A243DB68541B0F2C00DDEDE0002C00DBD1
:104C600007E19942F1D101239946CA4453460831DC
:104C70009B07E8D1032205E003680838013E834220
:104C800000D004E23242F7D14346019A5B68934375
:104C900042465360019A520001929A4216D8002A65
:104CA00006D113E004229146019ACA4452000192AF
:104CB0001342F7D05646C2E70C230020336048E782
:104CC00080203F2340219846800063E75E464746A8
:104CD0000322BC68636893439946AB4202D35B1BD3
:104CE0000F2B4EDC23004B4402934E4B08201B68D5
:104CF00010335B19019300F019FA4B4903900B68CC
:104D00008B46013306D08446019B4242013B6344FB
:104D1000134001933000019900F0D8F90300804658
:104D2000013300D1D7E0029B834200D9D1E0019A40
:104D30003E4B944619689A466144039A1960029B57
:104D40000800013A434500D0E4E04346134200D056
:104D5000E0E0BB68984663464B441A0001231A43BF
:104D600043465A60324B1868884200D21960314B72
:104D70001868884200D219604446AEE07B689846C5
:104D800044E7012229001343114365196160300093
:104D9000BD606B6000F08AF920000830D9E6DC685D
:104DA0000231A34200D10AE7C2E65A0A042A00D817
:104DB00088E0142A00D90FE110005B3082465C3293
:104DC000D200082040428446BA1894446246926851
:104DD0000B308146944500D1E5E00800A2466146CB
:104DE000844602E09268914204D04C465068A04349
:104DF0009842F7D8D368614654469C466346A26001
:104E0000E3609C60D46001E7142973D9542900D968
:104E1000EBE06E239846290B88446F31C800B9E651
:104E200080040020F80E002078040020C80E002026
:104E3000F00E0020F40E0020BA46012051468446B0
:104E40004919054350464560856847466046EB6012
:104E50005E469D605346396179612043083748605A
:104E6000CF6030008F609C5000F020F95046083031
:104E70006FE6BA4601205E465244516801435160D4
:104E8000BA683000D3609A6000F010F9380008303A
:104E90005FE62B00E908083342E6611988460121E4
:104EA0008C460D434146656039617961CA608A600C
:104EB000624602434A60E050300000F0F7F82000FC
:104EC000083046E69A091000393238308246D2005E
:104ED00077E7BC4214D0BC68626803239A43531B33
:104EE000AA4202D30F2B00DD4BE7300000F0DEF8C2
:104EF00000202EE65B23984688445C31C80049E6D2
:104F0000644B9A461868019B9C465346604418605F
:104F1000039B5A1E5B461B68013371D043460299BE
:104F20005B1A51461B180B60072341464046194047
:104F30000291184240D00398013384465B1A0199CC
:104F4000984441440191634411405B1A1A40110096
:104F50003000934600F0BAF8431C78D04346C01A9C
:104F600003005B44019353461968012059441960BA
:104F70004346019ABB6002435A60BC4200D1F1E64D
:104F80004B460F2B40D907220C3B934362680240EB
:104F900005201A436260E218506090600F2B4BD8D6
:104FA00043465A68DEE65346981001238340404644
:104FB00018438046786021E7019B039943441340DE
:104FC000CB1A1A4011003000934600F07FF8431CC2
:104FD000C4D100239B46C6E7542A18D81A0B1000E8
:104FE0006F326E308246D200EBE6AA235B00994214
:104FF00018D8DD3B9846E90B88447831C800C9E5EC
:105000005B46414619608FE7434658606DE7AA202A
:105010004000824226D8DA0B100078327730824680
:10502000D200CEE61C4B994226D87C239846A90C88
:1050300088447D31C800ADE521003000083100F022
:105040006BF953461968BB6898465A688AE6019A14
:10505000029B94464246083B63449B1A01930023FB
:105060009B4680E70C4882420CD89A0C10007D3297
:105070007C308246D200A4E6FE207E237F21984623
:10508000800087E5FE227E209200824699E6434614
:105090005B68FFE5C80E00205405000010B502480B
:1050A00000F040F810BDC046C40E002010B5024804
:1050B00000F03AF810BDC046C40E002010B5130031
:1050C0000A000100022000F06DF810BD002370B549
:1050D000064C050008002360FCF7D8FA431C00D0FA
:1050E00070BD2368002BFBD02B60F9E7CC140020A7
:1050F000014B18687047C0468808002070B5074CFF
:10510000074D641BA41005D0013CA300EB58984741
:10511000002CF9D100F0EAF970BDC046E00900208A
:10512000E00900207047C0467047C046802310B594
:105130005B01082801D1180010BDFFF7D9FF162325
:105140000360173BF7E7C04610B583070AD003009A
:10515000032102E001330B4205D01A78002AF9D16D
:10516000181A10BD030019680C4A0D4C8A188A439E
:1051700022420FD15968094A04338A188A432242CD
:1051800008D15968054A04338A188A432242F1D06B
:1051900000E001331A78002AFBD1E1E7FFFEFEFEB2
:1051A00080808080F0B5D6464F4646469846244BD0
:1051B000C0B5060018689A460F009146FFF7B2FF87
:1051C000204B1D68002D32D053466C6818681F2C88
:1051D00030DC002E0CD1631C0234A4006B606751DC
:1051E000FFF7A2FF0020E0BCBA46B146A846F0BDDA
:1051F00049468822A300EB189950C42149008C46E7
:10520000AC446146873AA240096891461143624620
:1052100011608421424649005A50022EDBD12900F8
:105220004A468D31FF310B6813430B60D3E7064DBF
:105230001D60C9E7FFF778FF01204042D3E7C04671
:10524000B00900202C0D0020300D0020034B10B5BC
:10525000002B02D00248FFF73DFC10BD000000000B
:10526000FD500010F0B5C646060000B508200D0040
:10527000FFF75CFF04003000FFF710FF234B210015
:1052800098469B685F6803239F4338001138401B92
:105290000019FCF75FFC451E6543AC4208DC0021A9
:1052A0003000FFF713FF43469B68DB19984206D096
:1052B0003000FFF7FBFE002080BCB846F0BD300098
:1052C0006942FFF703FF01300ED0012243467F1BE6
:1052D0009B6817430E4A5F60136830005B1B1360C6
:1052E000FFF7E4FE0120E7E700213000FFF7EEFEC4
:1052F00043469A68831A0F2BDADD064C044924686A
:10530000001B086001210B435360D1E7800400209B
:10531000C80E002078040020F8B5CE4647460500A8
:105320000C0080B5002957D0FFF7B8FE01232100FB
:105330009C46083948686246030003249343CF180B
:105340007A68654EA243B468BC4200D170E0BC18D4
:10535000A14664467A60044221D10868091A1B18E4
:1053600088688046484640682040340008348146BA
:10537000A04551D04046CC68C460A0604846002893
:1053800011D19B185548BA68824200D17FE0F86875
:10539000D060826001221A434A60CB5007E0484641
:1053A00040682042EDD062461A434A603B6080224A
:1053B0009200934214D2DA0858090123834070689E
:1053C00003437360D3009B199A68CB608A6099602D
:1053D000D1602800FFF76AFEC0BCB946B046F8BDF0
:1053E0005C0A042C3DD89C09200039343830E40094
:1053F00034192268083C0327944203D140E09268A4
:10540000944203D05068B8439842F8D8D468CC602E
:105410008A60A160D160DCE7002858D1B868D21852
:10542000FB68C3609860634613434B608A50D0E7C3
:105430009A186346034206D10B68C91A8868D218C5
:10544000CB68C3609860012313434B60244BB16069
:105450001B689342BDD8234B28001968FFF702FF51
:10546000B7E7142C07D9542C1AD81C0B20006F3422
:105470006E30E400BCE720005C345B30E400B7E74A
:10548000012380108340706803437360BFE7D160DD
:105490009160CA608A6001221A434A60CB5098E743
:1054A000AA225200944205D8DC0B200078347730D1
:1054B000E4009DE70C4A944205D89C0C20007D3402
:1054C0007C30E40094E7FE247E20A40090E762464E
:1054D0001A434A603B607CE7800400208804002077
:1054E0007C040020F80E002054050000F8B5C046EA
:1054F00001B40248844601BC604700BF8502002019
:1055000001B40248844601BC604700BFE9010020A5
:1055100001B40248844601BC604700BF4503002037
:1055200001B40248844601BC604700BF0901002065
:1055300001B40248844601BC604700BF4901002015
:1055400001B40248844601BC604700BFC10000208E
:10555000776F726B696E6700495F6C6976655F6F24
:105560006E5F73617475726E20544D00736F6D6160
:1055700074696320676C6F7665000000326538617E
:105580003A30303033000000676C6F76652063641A
:10559000630000000904000009026400030100A088
:1055A00032080B000202020000090400000102029E
:1055B0000004052400200105240100010424020246
:1055C00005240600010705810308001009040100F5
:1055D000020A0000000705020240000007058202DF
:1055E000400000090402000103000000092111012C
:1055F000000122EF000705810310000505010906DF
:10560000A1018501050719E029E715002501950885
:1056100075018102950175088101050819012905A7
:105620009505750191029501750391010507190012
:105630002AFF00150026FF00950675088100C005A9
:10564000010902A10185020901A100050919012929
:1056500005150025019505750181029501750381E8
:10566000010501093009311581257F9502750881F1
:105670000609381581257F950175088106050C0AF4
:1056800038021581257F950175088106C0C0050C7B
:105690000901A1018503150026FF0319002AFF0354
:1056A000950175108100C005010905A1018504055A
:1056B00001093009310932093509330934158125C9
:1056C0007F95067508810205010939150125083500
:1056D00000463B0195017508810205091901292041
:1056E00015002501952075018102C00012010002FC
:1056F000EF020140FECA0540000101020301000063
:105700004E6F207370696E6C6F636B73206172658E
:1057100020617661696C61626C6500004861726449
:105720007761726520616C61726D20256420616C07
:10573000726561647920636C61696D656400000065
:105740000A2A2A2A2050414E4943202A2A2A0A009E
:105750000A0000004861726420617373657274000E
:105760004F7574206F66206D656D6F727900000053
:1057700052656C6561736500626F6F74325F77327A
:105780003571303830000000302E3100312E342E8B
:10579000300000007069636F000000004D617220EE
:1057A000203920323032330006005250D3F0754297
:1057B0007057001006005250E182887F7857001021
:1057C000060052503ABCA9118857001006005250EA
:1057D000BBFF3CB6945700100D0A00005553422001
:1057E000737464696E202F207374646F7574000085
:1057F0000600525053B4F4A1DC570010556E686196
:105800006E646C65642049525120307825780A0016
:1058100065702025642025732077617320616C7288
:105820006561647920617661696C61626C65000014
:1058300043616E277420636F6E74696E756520789E
:10584000666572206F6E20696E616374697665208B
:105850006570202564202573000000006F757400BA
:10586000696E0000422B0010642D0010EA2C00101D
:10587000842C0010662C00104E2C0010E22B00101F
:105880008E2B0010822B0010A230001088300010E8
:105890003C2C0010443000103C2C00102C30001028
:1058A000183000103C2C0010043000105E30001046
:1058B0003C2C001008340010B63000103A340010B0
:1058C0003C2C00103C2C00101A340010B630001094
:1058D0003C2C00103C2C00103C2C00103C2C0010E8
:1058E0003C2C00103C2C00103C2C00109A33001073
:1058F000253C0010953C0010C13C0010A13D00105B
:10590000853E00100000000051400010654000106E
:105910007940001001410010C14200100000000059
:105920004A410010F6410010E2410010CE41001043
:105930004A4100104A4100104A4100104A410010FB
:105940004A410010B04100108C410010704100101D
:0859500028F1FF7F01000000B7
:10595800A8570010B4570010C0570010900200104C
:10596800CC5700109C020010A8020010B4020010CE
:04597800F0570010D4
:10597C00D02330B500251B0600245D5706E00368D4
:10598C00BFF35F8F1C6081F3108820BF0268EFF3B8
:10599C00108172B61368002BFCD0BFF35F8F0379B4
:1059AC007F2BECD905710368BFF35F8F00221A605F
:1059BC0081F3108830BDC04603000068EFF3108CF3
:1059CC0072B60268002AFCD0BFF35F8F04229A568D
:1059DC00002A04DB002900D00A60002004E0D02259
:1059EC000120120612681A711B68BFF35F8F002228
:1059FC001A608CF310887047F0B5C64600B582B0BB
:105A0C000C00070000F000F9FA220023009001912D
:105A1C0020009200002100F0FFF8009A019B140076
:105A2C001D0024184D41AB422FD82BD0D0231B0680
:105A3C001B68002698460BE03B68BFF35F8F1E6027
:105A4C0081F310882000290000F0D6F8002820D11E
:105A5C003A68EFF3108172B61368002BFCD0BFF3D9
:105A6C005F8F3B797F2BE7D943463B713B68BFF394
:105A7C005F8F00221A6081F31088012002B080BC75
:105A8C00B846F0BD009BA342D0D901246442E5176F
:105A9C00CCE70020F2E7C0460268EFF3108172B643
:105AAC001368002BFCD0BFF35F8FFF2303710368D7
:105ABC00BFF35F8F00221A6081F3108840BF7047DC
:105ACC0010B5084C2378002B0AD1802306480749CF
